:020000040002F8
:10600000C06200209D1603003776020073770200FD
:10601000AF770200D3770200B778020000000000DB
:10602000000000000000000000000000FF7A0200F5
:10603000437B020000000000277F020093800200E3
:1060400029FD02009780020019E00200078B020080
:10605000F3A10200EFA4020039EA0200E3C002004B
:1060600037C2020037D602004BD6020037E30200E7
:106070005BE30200EBEA0200B7ED02006FF0020002
:10608000F7F4020099BF02000F060300511003004D
:10609000B7110300C71103004DB202002B14030017
:1060A000C1190300C3190300C5190300C719030070
:1060B000C9190300CB190300000000000000000014
:1060C000CD190300CF190300D1190300D319030020
:1060D000D5190300D7190300D919030000000000E7
:1060E00000000000000000000000000000000000B0
:1060F00000000000000000000000000000000000A0
:10610000000000000000000000000000000000008F
:10611000000000000000000000000000000000007F
:10612000000000000000000000000000000000006F
:10613000000000000000000000000000000000005F
:10614000000000000000000000000000000000004F
:10615000000000000000000000000000000000003F
:10616000000000000000000000000000000000002F
:10617000000000000000000000000000000000001F
:10618000000000000000000000000000000000000F
:1061900000000000000000000000000000000000FF
:1061A00000000000000000000000000000000000EF
:1061B00000000000000000000000000000000000DF
:1061C00000000000000000000000000000000000CF
:1061D00000000000000000000000000000000000BF
:1061E00000000000000000000000000000000000AF
:1061F000000000000000000000000000000000009F
:106200002DE9F14FB2B09946924600230691CDE9AF
:1062100000333C9A0F930DF14A0114914A7011E03A
:10622000329E57462C4617F8011B0698B0470028A7
:10623000069000F026810F98401C641E0F90F2D14A
:106240003296AA449AF80000252808D1002100229D
:1062500009910A920B910C920D910E920FE06A46F1
:106260004FF0FF31504601F09EF8050002D10F9823
:1062700000F066BED4D50125E3E741F001011AF82C
:10628000010F2028F9D023280CD02B2804D02D284A
:1062900005D0302809D00BE041F00201EFE741F0D2
:1062A0000401ECE741F00801E9E741F01001E6E7FD
:1062B0002A280FD1D9F8002052F8040BC9F8002081
:1062C0000028119003D54042119041F004010AF1D9
:1062D000010A14E01192DFF8EC3B0AE011989842B1
:1062E00005DA00EB800402EB4402303A11920AF125
:1062F000010A9AF80020A2F130000A28EED39AF899
:1063000000002E2803D04FF0FF32109229E01AF837
:10631000010F2A2809D1D9F8000050F8042BC9F838
:10632000000010920AF1010A1BE02D280CBF0AF1AF
:10633000010A002000221092DFF8882B0BE040B900
:10634000109B934205DA03EB830504EB4504303CD4
:1063500010940AF1010A9AF80040A4F130030A2BC4
:10636000EDD3ADF848100FF660309AF8001001F048
:1063700025F808B11AF8010B8DF84A009DF84A007B
:10638000682805D19AF8000068280CD1622106E03F
:106390006C2804BF9AF800006C2804D171218DF894
:1063A0004A100AF1010A1FA808901AF801BBBBF1B4
:1063B00025012DD01C3900F06181091F022940F20E
:1063C0005D810E392AD0491F00F0B284093900F0EE
:1063D0005581891E00F04885491E00F0F484491E4D
:1063E000022940F24B81091F00F0ED84491F00F0A3
:1063F000BA80491E00F09C84491E65D0C91E21D078
:10640000891E00F09584C91E00F0928400F04BBDF7
:1064100025238DF87C30012109912AE06C208DF82C
:106420004A00D9F8000050F8042BC9F80000002AEF
:1064300043D11499487800283DD04FF0FF340FF62F
:10644000902012E09DF84A006C28EAD0D9F80000AC
:1064500050F8044BC9F800000794D4B9149948784F
:1064600098B14FF0FF340FF6842000F0C1FF201ADE
:1064700007D132981FAA04A900F065FD00287FF516
:10648000E1AE4FF0FF3000F05BBD0FF67C200790CF
:10649000EFE7109D002D04D5204600F0C9FF04460B
:1064A00007E02A46204600F0DFFF002814BF041B47
:1064B0002C460A94DDE70FF65422329804A900F026
:1064C000C8FD0028D5D5DCE7D9F8001051F8040B39
:1064D000C9F8001020F00004002121F0FF351FABA7
:1064E000CDE904450793DDE9042308993C2413B959
:1064F0000AB9109898B102F00F053035641EEEB25B
:106500003A2EA8BF2735120942EA03721B090D551E
:1065100008BF002A03D007980D19A842EBD3081929
:106520000790C4F13C0210980A92824209DABDF841
:106530004810821A4FF6EF7001400C92ADF84810E7
:1065400097E7002895D59DF8480000F01400102822
:106550008FD1119B09990C985B1A1B1A9A1A002A61
:1065600087DD0C9285E71499487820B14FF0FF340D
:106570000FF69C1079E79DF84A00622862D06828DF
:1065800019D06A2840D06C2806D071284DD07428C4
:106590002DD07A281ED064E0D9F8001051F8040BF1
:1065A000C9F8001020B94FF0FF340FF67C105CE7FB
:1065B0000F9901605DE7D9F8001051F8040BC9F894
:1065C000001020B94FF0FF340FF65C104DE70F9923
:1065D00001804EE7D9F8001051F8040BC9F80010FB
:1065E0000028E5D14FF0FF340FF63C103DE7D9F815
:1065F000001051F8040BC9F800100028D8D14FF052
:10660000FF340FF6241030E7D9F8001051F8040BCE
:10661000C9F8001020B94FF0FF340FF60C1024E732
:106620000F9AD317C0E9002323E7D9F8001051F8D7
:10663000040BC9F800100028F2D14FF0FF340FF618
:10664000E80012E7D9F8001051F8040BC9F800105F
:1066500020B94FF0FF340FF6D00006E70F99017014
:1066600007E7D9F8001051F8040BC9F8001000280A
:106670009ED14FF0FF340FF6B000F6E6D9F80020B7
:10668000D21D22F00702C9F80020D2E90001083229
:10669000C9F80020CDE90401C80F02D009982D21C6
:1066A0000AE0BDF84800810702D509982B2103E0D4
:1066B000C00705D5099820211FAA1154401C099034
:1066C0001FA809994BF020024318DDE90401CDE928
:1066D0002E01612A079315AC0BD01098002802D523
:1066E0000620109005E001BF4BF020006728012133
:1066F0001091DDE9040148004015401C0A4611D103
:1067000009030FD0ABF1610503201A2D0A9002D2C4
:106710000FF6A03101E00FF6A0310322184600F079
:10672000CFFEA6E650B9120308D1ABF161050320F4
:106730001A2D0A9016D30FF68831EEE7DDE9040131
:10674000CDE93001DDE9302323F00047B7F5801FA4
:1067500022F000060DD20022002F08BF002E029268
:1067600003D116E00FF65431D7E702AA00F0FCFE81
:106770000FE0DFF8F00ADFF8F01A00EB1750029094
:10678000DDE930234FF0FF301940DFF8E07A1040A8
:106790003943CDE904014BF0200061280DD1079861
:1067A00030210170821CBBF1610F07920CBF782170
:1067B000582141700998801C0990DDE9040120F0FE
:1067C000000231F0004308BF002A02D10026002554
:1067D00071E14BF02008B8F1610F40F0BE801098D5
:1067E000002847BF21210391401C0390039FDDE94E
:1067F0002E017F1C00220023DDE9044500F0ECFEA1
:1068000002998DF8542038BF85F00045091F002FEC
:1068100002910DF155065DDDDFF8541ACDE9302106
:1068200040F2FF732E93204629460022002300F0F9
:10683000EBFE4FD24800400D00F11C0315D0002B99
:1068400013DD2E9883420ADBDDE9300121F00040A0
:1068500005F000420243DDE93001114611E06FF31B
:106860001E5141EA035120460BE024F0000035F0B0
:10687000004108BF00280FBF29461C22294600F00E
:10688000DBFE04460D4600F075FFFF1F002F80461B
:1068900009DD00F08DFF02460B462046294600F038
:1068A00099FF04460D46F01D0721B8F1000F0CDDDD
:1068B000491E5EBF08F00F0200F8012D4FEA2818AC
:1068C000F3D502E0002200F8012D491EFAD5C61DBD
:1068D000002FA8DC0DF15500361A03988642D8BF68
:1068E000304600280DF1550430D4B04206DA0DF1DF
:1068F00055010A5C082AA8BF0F2100DA00210246D0
:1069000015AB134400E0401E13F80159521E8D428E
:10691000F9D00F2904D10DF155018B5C5B1C8B5410
:10692000002A04D50299091D15AC401C0291411E94
:106930000CD46218ABF13A0613783033DDB23A2D3D
:10694000A8BFF318491E02F80139F5D5109900299E
:1069500040F1AF80421E1092ABE00299DFF814299B
:1069600047F29750414391FBF2F2DDE92E45029246
:1069700025F00045D2F1070204DD2046294600F04B
:106980004DFC0BE052420020DFF8EC1800F046FC12
:1069900002460B462046294600F08EFF0446B8F119
:1069A000660F109806BF029F0A3706273F18142F5C
:1069B000C8BF142730208DF854000D460020DFF8A2
:1069C000BC18CDE92E010DF15506002F33DD204610
:1069D000294601F095F801460A4606F1080304200D
:1069E0000A26B2FBF6F606EB860EA2EB4E0230321A
:1069F00003F8012C0A22B6FBF2F202EB820EA6EBA0
:106A00004E063036401E03F8026DE9D1083F002FD4
:106A100003F10806D9DD084601F086F802460B4668
:106A20002046294600F0D6FEDDE92E2301F08AF843
:106A300004460D46CBE70DF15500361A0DF155040D
:106A400004E00298401E761E0290641C20783028D4
:106A5000F7D0B8F1660F02D10299491C04E0B8F1F1
:106A6000650F0CBF01210021109808188642B8BF9D
:106A7000701E00281DD4B04204DA215C3429C8BF3E
:106A8000392100DC30210246631E9D1800E0401EC3
:106A900015F80169521E8E42F9D0392902D1A15C44
:106AA000491CA154002A04D50299491C1C46401CCB
:106AB00002910646029D00F07AFC406A0778DDF8F4
:106AC000408030B2002802DC01260FF2F8744BF04F
:106AD0002000662808BF6D1C16D0672846D128B252
:106AE00010F1040F48DB404546DA9DF848006D1C64
:106AF000010703D430B24045B8BF804628B2B8EB96
:106B0000000848BF4FF000080FFA85FB07980A9964
:106B1000BBF1000F00F3B2804A1C0A9230234354A9
:106B2000B8F1000F03DC9DF84800010704D50A986E
:106B3000411C0A9107990F5418EB0B0FB8BFC8F10D
:106B400000052DB268420D90A84432B29045B8BFFE
:106B50004646079B0A9836B20B96324621461844A1
:106B600000F0AEFCA8EB06000E90CBE0BBF1610F8D
:106B700017D14FF0700B19E030B2404504DA9DF8A0
:106B800048100A0758BF8046B8F1010848BF4FF0C7
:106B90000008BBF1670F14BF4FF0450B4FF0650BBA
:106BA00004E0BBF1410F08BF4FF0500B0A98411CA5
:106BB0000A91B8F1000F079914F8012B0A5403DC6D
:106BC0009DF8480001071AD50A98411C0A91B8F1AE
:106BD000000F07990F5412DD761E30B280450798DA
:106BE0000A9BB8BF464632B22146184400F068FC02
:106BF0000A9936B271180A91A8EB06000D90079811
:106C00000A9908442AB2002A80F800B003D42B2243
:106C10004270811C04E02D2141701546811C6D429B
:106C200000202EAA0A2409E02B4693FBF4F505EB7D
:106C30008506A3EB460302F8013B401C2DB2002D54
:106C4000F2DC012806DC4BF02002652A04BF30226A
:106C500001F8012B00282EAA08D1302001F8010BE1
:106C600006E0401E135C303301F8013B0028F8DCDD
:106C7000079A0A981044091A0B9143E0084431B26C
:106C80002AB2914219DA32B2214600F019FC0A996F
:106C900036B27118ABEB0606B8F1000F0A910D96EB
:106CA00003DC9DF84800020704D5079847540B9968
:106CB000491C0B91CDF8388024E0214600F000FCFF
:106CC0000A98761B5844B8F1000F0A9003DC9DF82F
:106CD00048100A0703D5411C0A9107990F5430B296
:106CE000804507980A9BB8BF464632B204EB0B01B9
:106CF000184400F0E5FB0A9836B230180A90A8EB69
:106D000006000D909DF8480000F0140010287FF454
:106D1000B0AB099A0A990D988A180B9982180E98A7
:106D20008A18821811988242BFF6A3AB821A18E41F
:106D30009DF84A00622808D068280ED06A2814D02E
:106D40006C281FD0712810D01CE0D9F8001051F821
:106D5000040BC9F80010C0B21AE0D9F8001051F8BD
:106D6000040BC9F8001080B212E0D9F80020D21D3F
:106D700022F00702C9F80020D2E900010832C9F860
:106D8000002006E0D9F8001051F8040BC9F80010F3
:106D90000021CDE904019DF8480001075AD5DDE93D
:106DA0000423002B08BF002A54D04BF02000782881
:106DB00050D109981FA930220A54401C431C099342
:106DC00001F800B046E09DF84A00622808D0682823
:106DD0000ED06A2814D06C281FD0712810D01CE067
:106DE000D9F8001051F8040BC9F8001040B21AE0AD
:106DF000D9F8001051F8040BC9F8001000B212E0E5
:106E0000D9F80020D21D22F00702C9F80020D2E9EB
:106E100000010832C9F8002006E0D9F8001051F846
:106E2000040BC9F80010C117CDE90401002902D5EF
:106E300009982D210AE0BDF84800810702D509987C
:106E40002B2103E0C00705D5099820211FAA115462
:106E5000401C09901FA809990144079104A85946AC
:106E600000F057F9FFF705BB9DF84A006C280BD0DE
:106E700001210991D9F8000050F8041BC9F800005D
:106E80008DF87C10FFF7F5BAD9F8000050F8041B14
:106E9000C9F8000015914FF0FF32109200211691B1
:106EA00015AAFFF70ABB25210122BBF1000F8DF8BF
:106EB0007C1009923FF4DDAA8DF87DB00221FFF726
:106EC000ABBA0000CBCCCC0C686A6C747A4C000076
:106ED0007072696E74665F733A2062616420256C1B
:106EE0007320617267756D656E7400007072696EF3
:106EF00074665F733A206261642025732061726753
:106F0000756D656E74000000000000000000000058
:106F10007072696E74665F733A20256E20646973BF
:106F2000616C6C6F776564007072696E74663A208C
:106F300062616420256E20617267756D656E7400F4
:106F400033B0BDE8F08F2DE9FC410F460646904670
:106F50007A6B7869396ABC6A121AB869521A796A06
:106F6000121AF869521A121A97F83800141B4107BE
:106F70000FD42020002C8DF800000ADD25460123C7
:106F80006A463946304600F07DF900285DD16D1E15
:106F9000F5D17B6942463946304600F073F9002846
:106FA00053D130208DF800003D6A002D09DD01230A
:106FB0006A463946304600F065F9002845D16D1E15
:106FC000F5D1BB69FA683946304600F05BF9002814
:106FD0003BD130208DF800007D6A002D08DD0123B3
:106FE0006A463946304600F04DF970BB6D1EF6D149
:106FF000F868B969FB6942183946304600F042F931
:1070000018BB30208DF80000BD6A002D08DD01237B
:107010006A463946304600F035F9B0B96D1EF6D1F2
:1070200097F8380041070DD52020002C8DF800007E
:1070300008DD01236A463946304600F023F920B9BD
:10704000641EF6D10020BDE8F6814FF0FF30BDE8A8
:10705000F6812DE9F8470D46A3B02F6B002F82462D
:10706000904648BF6FF0004700F03DFE696B401846
:1070700001AA0021C2E90011812828BF4FF0FF308A
:1070800044D289461EE0A74230DB68692018812877
:107090000BD30021696303AA29465046FFF753FF2B
:1070A0005FEA000922D40020686103AB6E692246C2
:1070B0006946981900F004FAA6196E6158F8040B95
:1070C000A0B13F1B002F11DDD8F8001001AA6846BF
:1070D00000F06BF90446002C05D4D8F80000002815
:1070E000D1D1641ECFD54FF0FF390EE0B9F1000FBA
:1070F000504604D103AA2946FFF725FF8146B9F17E
:10710000000F02D1002068616863484624B0BDE8E2
:10711000F0872DE9FC4307466F293E6908BF082424
:1071200005D041F02000782814BF0A2410243C2503
:10713000D7E90023642918BF69299046994605D1EB
:10714000002B03D5D8F1000869EB4909B9F1000F0C
:1071500008BFB8F1000F0CD1386B50B9082C39D1E9
:1071600097F83800010735D530203B2586F83B00DD
:1071700030E08DF80010404649462246E31700F003
:10718000B7FD3032D0B26D1E3A28019504DB9DF870
:107190000000A0F151018A18725540464946224626
:1071A000E31700F0A5FD80465FEA010908BFB8F1CA
:1071B000000F03D0F86871198842DCD3082C09D17C
:1071C00097F83800010705D5705D302802D06D1E94
:1071D00030207055C5F13C02BA617119F960386B05
:1071E000824208DA821A3A624FF6EF70398F014014
:1071F0003987BDE8F38300280ED597F8380000F0F2
:107200001400102808D17B6B7969386A5B1A1B1A45
:107210009A1A002AC8BF3A62BDE8F3832DE9D04329
:1072200006460F4614464FF00008DFF8549012E06F
:10723000E00707D542464B463046394600F082FC0F
:1072400006460F464046494642464B4600F07AFC09
:10725000641080468946002CEAD130463946BDE8A4
:10726000D083000002FCFFFFFFFF0F800000E03F23
:107270000000F07FA08601000000F03F84D7974116
:1072800000002440F8B505460E4617461C4600206F
:107290005CB117F8011BB068A847B06030B1F06A64
:1072A000401CF0620020641EF3D1F2BD4FF0FF30AD
:1072B000F2BD00006E616E004E414E00696E6600C8
:1072C000494E4600300030B4002513E050F8042B3E
:1072D000D30744BFA9F101039A18091F042942F8F2
:1072E000045BFAD213468C0744BF15809B1CC90768
:1072F00048BF1D7050F8041B0029E7D130BC70470F
:10730000613807E005E0A0F161011A2901D20120EE
:10731000704741381A288041C00F7047A0F1210101
:107320000F290AD3A0F13A02062A06D9A0F15B017F
:10733000062902D37B380428EDE7012070471D4859
:10734000704770B45368D41801E05B1C491E042BCD
:1073500008DA00291FBF057804F8015B10F8016BFB
:10736000002EF2D1536070BC704738B514461D46EC
:1073700061B1FFF7E6FF61686A6B204690476FF0E6
:107380000102811A02D0491E01D001E003E005E0AC
:107390000021616032BD6FF0010032BD4FF0FF305F
:1073A00032BDDA6B1047034BDFE7024BF9E70248C7
:1073B0007047000028310020F0300020C9B2027868
:1073C0008A421AB11CBF10F8012FF9E718BF00203C
:1073D0007047B1F5807F02D34FF0FF3070470170E6
:1073E000012070470078401E8041C043C00F7047A5
:1073F00080B500B906A005490B681BB12222002107
:10740000984701E000F08CFD222002BDA44200203C
:10741000636F6E73747261696E742068616E646C00
:1074200065723A20626164206D65737361676500FF
:1074300000F10103810704D010F8011B820781B11C
:10744000FAD10268A2F10131914311F0803104BFF9
:1074500050F8042FF6E709BAB1FA81F100EBD10038
:10746000401CC01A70470000C9B2830706D0521EE4
:1074700022D310F8013B9942F7D11FE0083A13D309
:1074800002F1040241EA012141EA014150F8043BC2
:10749000121F21BF4B40A3F1013C2CEA030C1CF04E
:1074A000803FF3D0C9B2001F083210F8013B521ED2
:1074B00028BF91EA030FF8D818BF0120401E70477B
:1074C00062B38B0708D0521E11F8013B00F8013B54
:1074D00000F024808B07F6D1830740F0208000BFA6
:1074E000103A07D330B4B1E83810103AA0E8381099
:1074F000F9D230BC530724BFB1E80810A0E8081047
:1075000044BF51F8043B40F8043BD20724BF31F894
:10751000022B20F8022B44BF0B7803707047121F18
:1075200017D35B0009D151F8043B20F8023B1B0C38
:10753000121F20F8023BF6D20BE051F8043B00F892
:10754000013B1B0A20F8023B1B0C121F00F8013BF9
:10755000F3D238BF121D521E24BF11F8013B00F8B0
:10756000013BF8D870472E0010B5144600F002F821
:10757000226010BDC1F30A5343B14A0012F5001F47
:1075800028D2A3F2FE32A1EB0251704750EA410C1F
:1075900020D001F0004C31EA0C01B1FA81F204BFB5
:1075A000B0FA80F3D2180B3AB2F120032CBF00FAE4
:1075B00003F1914041EA0C013EBFC2F1200C20FAD8
:1075C0000CF319439040524240F2FD33D21A01EBC2
:1075D00003517047002270474FF4001C1CEB410F11
:1075E00094BF1CEB430F09E041EA030C50EA4C0C3A
:1075F00052EA0C0C03D2994208BF9042704714BF64
:107600008B428242704743004FF4001C1CEB410F39
:1076100094BF1CEB430F09E041EA030C50EA4C0C09
:1076200052EA0C0C03D28B4208BF8242704714BF4F
:10763000994290427047FEE7124254D440F2FF7CD8
:107640001CEA11530FD0634531D09B1863453CBFF2
:1076500001EB0251704701F0004141EA0C5100205A
:10766000AFF30080704750EA410320D001F0004C96
:1076700091EA0C011CD0B1FA81F30B3B9A420DD96F
:10768000D21A994051EA0C01C3F1200C20FA0CFCEB
:1076900061449840531C40F2FF7CD7E7914041EA97
:1076A0000C01C2F1200C20FA0CF3194390407047F2
:1076B000B0FA80F31533202BE0D3202AEED3203A02
:1076C000203B9A4209D9D21A00FA03F141EA0C018F
:1076D0000020531C40F2FF7CB8E700FA02F141EAB7
:1076E0000C0100207047524240F2FF7C1CEA11530B
:1076F0000DD06345DBD0B2EB030C3CBFA1EB0251D4
:1077000070470CF1010221EA035141F4801150EA63
:10771000410CCCD001F0004C352A27DC30B481EA92
:107720000C01B2F1200309DAC2F12003044601FA88
:1077300003F5D0402843D1409C400CE0C3F1200227
:10774000450020FA03F418BF44F0010421FA03F0C5
:1077500091400C43002174F1004550F1000051EBC1
:107760000C01244230BC7FF47BAF7047614600209F
:1077700076E7FEE7C1F30A5340F2FE329B1A14DDAE
:10778000D3F120034FEAE17208DDC90241EA50510A
:1077900041F00040D84080185040704703F2E1307B
:1077A00010B1D24382F00040704700207047FEE7DE
:1077B000C11768B14840401AB0FA80F29040D21C1C
:1077C000C907C2F5846241EA025202EBD0214005AA
:1077D0007047FEE770B44FF0004591EA030F40F1A7
:1077E000A3836B40841A71EB030603D2001BB141E3
:1077F000121973414FF4001C1CEB410F34BF7CEB9A
:10780000430442E00C0DA4EB1356352E4FDC45EA41
:10781000C323DB0A45EAC121C912B6F120050DDDFB
:1078200063FA05F6EB4086EA0305124218BF45F0FD
:107830000105C01851F100010CD213E062FA06F5FF
:10784000F2405540F3415A40B340F3405A4080184B
:10785000594107D349085FEA30005FEA350528BF80
:1078600045F0010501F58011420875F1004250F123
:10787000000041EB04514E0016F5001F70BC38BFEC
:1078800070470020090D090570471CEB410F10D20D
:1078900052EA43060BD0BCEB410F05D80C0DAB43AD
:1078A000661E342EB6DD02E0AB438018594170BC31
:1078B000704770BC7047FEE7F0B540F2FF7581EA93
:1078C000030C0CF0004C15EA11541DBF15EA1357B8
:1078D000AC42AF42E5E0BC41C1F31301C3F3130373
:1078E000801A994143F4801304D2641E4000494138
:1078F00080185941C90241EA5051B1FBF3F603FB2C
:107900001611A2FB0675D7EBC020A94102D2761E44
:1079100080185941C90241EA5051B1FBF3FE03FB03
:107920001E11A2FB0E75D7EBC020A94103D2AEF108
:10793000010E80185941890241EA9051760546EAC4
:107940008E2EB1FBF3F603FB1611A2FB0675D7EBE7
:107950008020A94102D2761E80185941C90241EA0D
:1079600050514EEA060EB1FBF3F603FB1611A2FBD3
:107970000675D7EBC020A94102D2761E8018594166
:10798000C90241EA5051B1FBF3F703FB1711A2FB07
:107990000735D3EBC020A94167F100070CBF0042B7
:1079A00047F0010766F3D5274FEA1E31B80814F5F2
:1079B000806412DDBD0775F1004250EB0E5051EBB3
:1079C000045111F5801F5CBF41EA0C01F0BD4CF081
:1079D0007F6141F0E0410020F0BDBD076D0840EA45
:1079E0000E5041F48011D4F10104B4F120060ADAFA
:1079F000C4F120060200E04001FA06F3E14018431A
:107A0000B24015430EE0342C13DCC6F1200445EAE5
:107A100040056D0820FA06F2154321FA06F0A14050
:107A20000D43002175F1004250F1000051EB0C01B3
:107A3000F0BD00205FEA0C01F0BDCFB992185B41A8
:107A4000B3FA83F704BFB2FA82F6BF190B3FB7F15E
:107A500020062FBF02FA06F3BB40C7F1200622FA28
:107A600006F638BF3343BA401CB1E419641E33E74D
:107A70007F4231F00041B1FA81F404BFB0FA80F6E0
:107A8000A4190B3CB4F120062FBF00FA06F1A14067
:107A9000C4F1200620FA06F638BF3143A0403C1B53
:107AA0001AE7AC421ABF05EA1357AF4212E050EA98
:107AB00041061CBF52EA4306BFE750EA4107304681
:107AC00061461CBF41EA0551F0BD52EA430C08BFB4
:107AD000C143F0BD00204FF4001616EB410F98BFD4
:107AE00016EB430F08BF16EB410F24BFC14305E05F
:107AF00016EB430F0CBF61464CEA0551F0BDFEE7A3
:107B0000400D491840EA81200CD2490DA1F5806151
:107B1000491C40F0004005DBD1F11F0154BFC840B3
:107B2000C017704700207047014648B1B0FA80F195
:107B30008840C91CC1F58461090501EBD0214005CD
:107B40007047FEE7B0B581EA030C0CF0004C40F240
:107B5000FF7515EA11541DBF15EA1357AC42AF4229
:107B600039E0E41923EA455343F48013C90241F094
:107B7000004141EA505EC7021100A7FB0202002843
:107B80004FF00000EEFB01204FF00001E3FB072166
:107B900018BF42F00102401800214941E3FB0E01E9
:107BA000A4F580640F0302D252004041494154F1D0
:107BB00001046CDD470872F1004250F1000051EB06
:107BC0000451A1F580115CBF41EA0C01B0BD4CEA43
:107BD00005510020B0BD05EA1357AC4214BFAF42B7
:107BE00041E050EA410E1CBF52EA430E02E06146FA
:107BF0000020B0BD24423C441BD15FEA070EF6D002
:107C0000090302BF01460020AEF1140EB1FA81F75C
:107C1000AEEB070401FA07FE0C37C7F1200100FAAA
:107C200007F7C8404EEA000E23EA455343F4801399
:107C3000A2E733F00043B3FA83F704BFB2FA82FE3F
:107C400077440B3FE41BB7F1200E2FBF02FA0EF36F
:107C5000BB40C7F1200E22FA0EFE38BF43EA0E03E6
:107C6000BA40641C82E750EA410E14BF52EA430E48
:107C70006FF000014FF4001717EB430F8ABF19464E
:107C800017EB410FB5E74CEA05510020B0BDD4F128
:107C90000104B4F120070FDAC4F12007520828BF0D
:107CA00042F0010210FA07F501FA07F7E1BF2A4393
:107CB000E0403843E1400FE0352C98DCC7F1200468
:107CC00052EA400220FA07F218BF42F0010231FAEC
:107CD00007F0A1400A43002172F1004250F1000078
:107CE00051EB0C01B0BD80B5FFF729FB006C02BD64
:107CF000BBBBE1B1B2F5803F80F07E80022A1ED985
:107D00008C46B1FBF2F102FB11C31B0443EA1043A2
:107D1000B3FBF2FC02FB1C3380B240EA0343B3FB2B
:107D2000F2F002FB103240EA0C4000237047022AB6
:107D300005D98446B0FBF2F002FB10C270474AB18D
:107D400005D100F0010249085FEA300070470022C7
:107D50000023704700F09EB90B00020000210020B4
:107D60007047904271EB030CF6D3B3F5803F2FD2EE
:107D7000F0B5B3FA83F7B1FA81F4A7F10F0E3D1B0A
:107D80005340CEF1200602FA0EF2F3415340B5F112
:107D90000F0746D80F3C2C444140C4F12006A040B8
:107DA000F1414140B1FBF3F603FB1611A2FB06457E
:107DB000001BA94102D2761E8018594180EA0102B7
:107DC00021FA0EF362FA0EF200215A403046F0BD5D
:107DD00030B4B1FBF3FC03FB1C11A2FB0C45001BF0
:107DE000A94103D2ACF1010C8018594130BC0246C4
:107DF0000B46604600217047B2F1807F65D3F0B535
:107E0000B2FA82F7B1FA81F4C7F10F063D1B22FAEC
:107E100006F307F1110EF24120355A40B5F10F0774
:107E2000B8D94140C4F12006A040F1414140B1FB26
:107E3000F3FC03FB1C11A2FB0C45001BA94103D260
:107E4000BCF1010C801859410F2F12D30F3FC90309
:107E500041EA5041B1FBF3F603FB1611A2FB0645C4
:107E6000D4EBC030A94102D2761E8018594146EAAF
:107E7000CC3C07B34140C7F12006B840F141414036
:107E8000B1FBF3F603FB1611A2FB0645001BA9414B
:107E900002D2761E8018594180EA010221FA0EF3BF
:107EA000C7F1200462FA0EF20CFA07F05A402CFADD
:107EB00004F13043F0BD80EA010221FA0EF3002103
:107EC00062FA0EF260465A40F0BD8C46B1FBF2F108
:107ED00002FB11C31B0243EA1063B3FBF2FC02FB7B
:107EE0001C331B024CEA002043EA1063B3FBF2FC94
:107EF00002FB1C331B024CEA002043EA1063B3FB75
:107F0000F2FC02FB1C331B024CEA002043EA106324
:107F1000B3FBF2FC02FB1C324CEA0020002370474A
:107F2000012000F0B9B8FEE7841A71EB030604D211
:107F30006E40001BB141121973414FF4001C1CEB41
:107F4000410F34BF7CEB430683E00C0DA4EB1356CA
:107F5000362E00F37C80012E45EAC32341DC43EA40
:107F6000525312BFD20292025B08240545EAC12196
:107F700041EA5051D2EBC020994125D407D1B0FA43
:107F800080F610FA06F162D00020203608E0B1FA3F
:107F900081F6B140C6F1200220FA02F21143B0404E
:107FA0004FEAF474B4EB465434F001064FEA74041B
:107FB0000AD8D6F50016760D04F00044F04061FAB8
:107FC00006F25040F1404840C00A40EA415021F0DA
:107FD000004128BF5FEA500550F1000044EBD12179
:107FE00035E0DB0A45EAC121C90AB6F120050EDDFC
:107FF00042EA0242120CC5F1200603FA06F6EB40F3
:1080000042EA06056D42984161F100010DE062FA15
:1080100006F5F240554063FA06FC82EA0C02F34092
:108020005A406D42904161EB030111F4801F05D16C
:10803000641E620502D06D004041494121F4801167
:10804000430875F1004350F1000041EB045170BC4E
:1080500070471CEB410F15D223F0004352EA430650
:108060000BD04FEA4C0CBCEB410F04D80C0D661E34
:10807000342EB7DDEBE7801A994150EA410608BF7C
:108080000021E4E708BF1CEB430F28BF6FF000019D
:10809000DDE7FEE77047FEE72021090326311820BF
:1080A000ABBEF9E780B500F01FFD01BD2DE9F04141
:1080B00006000F00DFF82C59286800F07CFF00282C
:1080C00001D000F011FD5FF000081FE016F8080075
:1080D00001F0D2F80400002C14D0112C12D042462A
:1080E000DFF80419DFF80409DFF80439C01AC00802
:1080F000000450F0010001F0C7FA2000002801D070
:1081000000F0F2FC112CE1D018F10108380080B227
:108110008045DBD300224FF48041286800F017FF30
:10812000002801D000F0E0FCBDE8F0812DE9F0412D
:1081300007000E00904600253800FFF779F904008B
:108140000421DFF8B008FFF7B1FF002C07D02100B1
:1081500089B23800FFF7AAFF07EB0400451E002E86
:108160000DD0404680B2002809D0414689B2300087
:10817000FFF79CFF1FFA88F806EB0800451E002D4C
:1081800007D028780A2804D00A2001F075F81128B1
:10819000FAD0BDE8F08180B500220021FFF7C6FFCC
:1081A00001BD80B5DFF85008FFF7F5FF01BD80B5D0
:1081B000DFF84808006800F0FEFE002801D000F05B
:1081C00093FC002001F0EAFC01BD80B5DFF8300827
:1081D0000078002822D1DFF82C28DFF82C18DFF8EF
:1081E0000C08DFF80C38C01AC008000450F0030077
:1081F00001F04AFADFF81408FFF7CDFFDFF81008A6
:1082000001F04EFF002801D000F06EFC012000209C
:10821000C046002801D000F067FC03E0DFF8F40757
:10822000FFF7B9FF01BD80B5DFF8D407007800285B
:1082300013D1DFF8E417DFF8B407DFF8B427801AAA
:10824000C008000450F0030001F018FA01F0E4FE49
:10825000DFF8C807FFF79FFF03E0DFF8B807FFF775
:108260009AFF01BD80B5DFF89807007801280BD18F
:108270001321DFF8AC07408876DF082808D00028F3
:1082800001D000F031FC03E0DFF89807FFF783FF2F
:1082900001BD1FB50178042922D033D3062906D0A9
:1082A00030D24068002801D000F01EFC2AE040686F
:1082B000817903914179029101790191C17800910D
:1082C00083784278DFF86017DFF82007DFF820476F
:1082D000001BC008000450F0030001F0EEF911E0AB
:1082E000DFF84817DFF80407DFF80427801AC00812
:1082F000000450F0030001F0C1F9DFF82007FFF798
:108300004AFFFFE71FBD1FB5102100226C46200069
:1083100001F03CFF01208DF8040001208DF80C00D5
:10832000DFF8EC46DFF808276946200001F076FE0A
:10833000002801D000F0D8FBDFF8F8260321200048
:1083400001F04BFD002801D000F0CEFBDFF8B42691
:108350000021200001F041FD002801D000F0C4FB05
:1083600000220521200001F051FD002801D000F07D
:10837000BBFB1FBD80B50100DFF8A40601F041FF83
:1083800001BD80B50A000378411C1800C0B2A128C5
:1083900005D192B2DFF8A006FFF7C8FE07E0DBB216
:1083A000A22B04D192B2DFF89406FFF7BFFE01BD05
:1083B000FEB501A9DFF8882613680B600078002855
:1083C00005D0022800F0EA80C0F0FE8012E1684685
:1083D00000F03AFFDFF86C462068002831D5DFF85E
:1083E0006856DFF868669DF8000031886854308868
:1083F000401C30803088284410F8010C0A280BD02B
:108400003088284410F8010C0D2805D03088DFF89A
:1084100040160988884213D332882900DFF8000605
:1084200001F0F9FF0700082F06D0132F04D0380001
:10843000002801D000F058FB132FEDD00020206061
:10844000D8E02068042840F09480DFF80856DFF870
:10845000FC659DF80000318868543088285C0A2843
:108460000AD03088285C0D2806D03088285C3D284A
:1084700002D030881F2878D3002020600722DFF840
:10848000D815280002F034F8002805D132882900D8
:108490000020FFF74BFE6BE00722DFF8C015280035
:1084A00002F026F8002809D1A120DFF89C150870F9
:1084B0005FF0FF3020600120308059E00A22DFF8B1
:1084C000A015280002F014F8002802D1FFF7CAFE18
:1084D0004EE00622DFF88C15280002F009F800288B
:1084E0000DD10422DFF88015E81D02F001F8002804
:1084F00002D1FFF798FE3BE0FFF767FE38E0092264
:10850000DFF86815280001F0F3FF002830D00522BD
:10851000DFF85C15280001F0EBFF002810D1DFF830
:108520005405FFF738FE002240F26661DFF8CC0404
:10853000006800F00CFD002801D000F0D5FA17E02B
:108540000522DFF83415280001F0D2FF002809D1F8
:10855000A220DFF8F41408705FF0FF3020600120E3
:10856000308047E00020308002E03088401C3080BE
:1085700040E09DF8000001A92268895C884202D091
:108580000020206002E02068401C20602068042851
:1085900003D10020DFF8B41408802BE0DFF8DC14EE
:1085A000DFF84804DFF84824801AC008000450F0BF
:1085B000010001F063F80020DFF890140880042027
:1085C000DFF88014086015E0DFF8B414DFF81C044D
:1085D000DFF81C24801AC008000450F0010001F0EC
:1085E0004DF80020DFF8641408800420DFF85414EC
:1085F0000860FFE7F7BDF8B505000C0020780028FB
:1086000003D002283CD02DD34BE0DFF8E463DFF841
:10861000DC73DFF87014B81BC008000450F00300CE
:1086200001F02CF814F10E026188280001F04CFFD3
:10863000002801D000F058FA280001F0D9FE0028E7
:1086400001D000F051FADFF84014BE1BF6083604E2
:1086500056F00306300001F011F8DFF8B803FFF719
:108660009AFD1EE0DFF82414642008600868421EAA
:108670000A600028FAD1A189A068FFF782FE10E005
:10868000DFF80C14DFF86403DFF86423801AC008F5
:10869000000450F0030000F0F1FFDFF88803FFF75B
:1086A0007AFDF1BD10B5040000200020C04600286E
:1086B00001D000F019FAE4B2002C06D101F09DFFC0
:1086C000002801D000F010FAFFE7012010BD1CB512
:1086D0000400201D218810290ED011292AD0132929
:1086E00048D01B2937D01F294ED0212954D03B29EF
:1086F0005ED0562964D06BE00120C1490870002289
:10870000A188DFF81C0301F0DFFE002801D000F093
:10871000EBF907200020C046002801D000F0E4F962
:10872000A188DFF8700302F0F3FB002801D000F00D
:10873000DBF94DE00021B24A117003790288DFF8BD
:108740005813AA48AA4C001BC008000450F00300AC
:1087500000F0A1FF3CE0007902280AD1DFF83C13C9
:10876000A248A34A801AC008000450F0030000F099
:1087700085FF2DE0002300228521A0887FDF0028CF
:1087800001D000F0B1F923E0011D008875DF002859
:1087900001D000F0A9F91BE0C1480088ADF8000045
:1087A0006946A0888FDF002801D000F09DF90FE016
:1087B0001321A08876DF002801D000F095F907E0AA
:1087C0001321A08876DF002801D000F08DF9FFE7A3
:1087D00013BD80B502F0BDFC002801D000F084F983
:1087E000002000906946012002F03FFD002801D0E2
:1087F00000F07AF9684602F004FE002801D000F08B
:1088000073F901BD70B50C00208840F677218842CD
:1088100018D1774D754EA349701BC008000450F065
:10882000030000F02BFF8A48A188C91E018003883D
:1088300002889D49751BED082D0455F0030528009D
:1088400000F029FF70BD10B5984C9949200002F046
:10885000C5FF002801D000F047F9F721200002F001
:10886000D6FF002801D000F03FF910BD80B5C0B29E
:10887000042805D00A2806D1002001F08FF902E073
:10888000FFF7F0FCFFE701BD80B58AB004A8894975
:108890001822FEF725FE884800904FF48070019062
:1088A0008649029103900723854A694604A800F08F
:1088B00077FC002801D000F017F90BB000BDE0B53F
:1088C0008048009080480190804802906946544852
:1088D00001F0F9FC002801D000F006F907BD80B5D1
:1088E0007B49032003F0A6F8002801D000F0FCF833
:1088F0006946002001F0BEFE002801D000F0F4F827
:1089000001BD80B500F0E4FA002801D000F0ECF8D9
:10891000704A0021334800F002FB002801D000F02B
:10892000E3F86D4A0021354800F0F9FA002801D03B
:1089300000F0DAF801BD80B54FF48041002000F06E
:10894000EBFC002801D000F0CFF803F0F7F801BDF0
:1089500080B501F0DBF8002801D000F0C5F801BDBA
:108960001CB5082100226C46200001F00FFC5B487A
:10897000009056480190684602F051FA002801D054
:1089800000F0B2F813BD80B500F0B4FE002801D1AC
:1089900001F0C9F801BD80B5FFF7CDFFFFF7B1FFCA
:1089A000FFF772FFFFF79BFFFFF7DAFFFFF7D0FF3C
:1089B000FFF70FFFFFF747FFFFF781FFFFF7A3FC6C
:1089C000474803F0CBF847490848094A801AC008CD
:1089D000000450F0030000F051FEFFF7D4FFFCE765
:1089E0000000000094190300D80D03009804030050
:1089F00050040300381803004018030098190300BE
:108A0000B642002080180300EC0E0300AC150300F2
:108A1000983E00202017030060140300BC150300DB
:108A200024410020CC150300640C0300DC15030076
:108A300093820200901903002C17030048180300CA
:108A40008C190300904200208C3A0020AC42002098
:108A50006A320020EC400020501803005818030030
:108A60003817030060180300681803004417030058
:108A700070180300EC15030078180300C80B0300FE
:108A8000540D030074140300940C0300944200205E
:108A9000FC150300C42A0020C40C0300941003003A
:108AA00066740200E4110300000E0300544100202C
:108AB00005880200DC1203008C3800208C3900206D
:108AC000B1830200F7850200A580020094300020E7
:108AD0006D880200A3810200AF810200758302004D
:108AE000C4120300100F03001FB5694600220023C3
:108AF000002481E81C0002906A46002144F2010033
:108B000003F052F81FBDFEE780B5DFF8080503F05B
:108B100038FADFF80415D1E9002300211018594173
:108B2000DFF8F824D2E90023994206D801D3904215
:108B300003D2B0F17F4071F1FF3104BDD0E90223CF
:108B4000D1E90201994204D301D8904201D3012016
:108B500000E00020C0B270477CB504000026DFF8BA
:108B6000C004007801285DD1002C5BD0FFF7CCFF5A
:108B7000D4E90223994245D301D8904242D3002040
:108B80008DF801000DF1010003F072FA2069002850
:108B900005D15FF0FF305FF0FF31C4E902019DF8BD
:108BA000010003F069FAA0696169884700208DF827
:108BB0000000684603F05CFA2069002813D0D4E96D
:108BC00002015FF0FF325FF0FF33994201D1904222
:108BD00009D0D4E902232069002110185941C4E9C1
:108BE0000201012500E000259DF8000003F044FA91
:108BF000EDB2002D16D02100DFF8280403F041FA71
:108C000001260FE0D4E902015FF0FF325FF0FF338D
:108C1000994201D1904205D02100DFF8080403F009
:108C200030FA01263000C0B276BD2DE9F0410700D0
:108C300088460D26002088F80000D7E90245FFF796
:108C400063FF201A75EB010101220023994219DB11
:108C500001DC904216D3B0F5350F06D300F0D4F9FD
:108C60000200DFF8C403821800E022005FF49603DC
:108C70000021DFF8A00303F0E7F80600002E06D17C
:108C800001200DE00021DFF88C0303F06AF90D2EBE
:108C900005D13800FFF760FF88F80000FFE70020EB
:108CA000BDE8F08180B5DFF87C0303F0FDF9002812
:108CB00000D1002002BD80B5DFF86803406800687D
:108CC000002800D1002002BD80B5FFF7EBFF00288F
:108CD00005D05FF0FF325FF0FF33C0E902230028C8
:108CE000F3D101BDDFF83003D0E90023B2F17F42B8
:108CF00073F1FF33C0E90023704710B5DFF82C4350
:108D00002068002805D02068FFF726FF002020609B
:108D1000FFE710BD80B5FFF7F7FEDFF80023C2E9DB
:108D2000000101BDF8B5050001E0FFF7BBFFFFF74B
:108D3000C2FF0024002845D0D0E902235FF0FF36AF
:108D40005FF0FF37BB4201D1B242EED0B74E31687F
:108D5000002901D1012419E0D0E902013268D2E9E9
:108D60000223994212D801D390420FD201243068D5
:108D7000D0E902015FF0FF325FF0FF33994201D189
:108D8000904203D03168A74803F07BF9E4B2002C8D
:108D900017D0FFF787FF040069462000FFF745FF63
:108DA00000280BD03068002802D1280002F0DEFF36
:108DB00034609DF800000028B9D10AE0002030603E
:108DC000B5E706E099480068002802D1280002F0C3
:108DD000D3FFF1BDDCB5964C6946206803F011FA6B
:108DE0000DE004E0FFF770FF01208D49087069462F
:108DF000206803F015FA6946206803F002FA00289B
:108E000025D00178002903D00229EBD010D3E8E760
:108E10004168D1E902235FF0FF365FF0FF37BB42C4
:108E200001D1B24203D041687E4803F02AF9DEE75F
:108E30007E4942680B689A4202D10020086005E032
:108E40004168784803F03DF9C0B20028CFE7D3BDB0
:108E500010B50400200003F07EF8002801D0FFF7D1
:108E600041FF0021200003F084F8002802D02000F8
:108E7000FFF743FF0121200003F07BF8002802D018
:108E80002000FFF747FF2000FFF7A4FF2000FFF7B7
:108E900049FF10BD80B55F4803F078F801BD7CB58F
:108EA00004000D00624E6946306803F090F9002816
:108EB0000CD0047045606946306803F097F90028CB
:108EC00002D0FFF7E7FFFFE7002000E0042076BDB7
:108ED00038B558480068009008235822564954482D
:108EE000006803F059F9002818D14A4D534A6946E1
:108EF000280002F0FEFE0400002C01D020000DE04E
:108F00000121280003F020F801234D4A0121280007
:108F100002F038FF012042490870200032BD30B411
:108F20001300002B01D107200FE000685FF0FF3431
:108F30005FF0FF35C0E902454261C9B2012901D1A4
:108F4000012100E000210161002030BC70472DE9C3
:108F5000FC4105000E00904600208DF80000684698
:108F600003F086F8D5E902015FF0FF325FF0FF33CE
:108F700099420AD1904208D1FFF7C6FD0027801917
:108F80007941C5E90201012400E000249DF80000B8
:108F900003F072F8E4B2002C01D1002009E0C5F81A
:108FA00018802869002800D02E6129000020FFF7D2
:108FB00076FFBDE8F68138B5050000208DF8000089
:108FC000684603F055F8D5E902015FF0FF325FF023
:108FD000FF33994203D1904201D1002406E05FF0B3
:108FE000FF305FF0FF31C5E9020101249DF8000068
:108FF00003F042F8E4B2002C01D1002003E0290084
:109000000120FFF74CFF32BD80B5024802F0B9FFE6
:1090100002BD0000A82A00200842002010420020C3
:10902000AF420020F0160300FFFFB40060420020B2
:109030008019030084190300643F0020518E020050
:10904000FFFF7F0038B500239B4D04782C5D002C7A
:1090500005D0D2B2001D03F074FA030008E00478D2
:109060002C5D002C04D1D2B20C3003F0D0FD0300F3
:10907000180032BD80B500218F4B02789A5C002A1F
:1090800004D0001D03F0B5FA010007E002789A5CF5
:10909000002A03D10C3003F0FBFD01000800C0B230
:1090A00002BD38B50023844D04782C5D002C05D01A
:1090B000D2B2001D03F0ACFA030008E004782C5D86
:1090C000002C04D1D2B20C3003F020FE03001800B3
:1090D00032BD01008868C968081A70471CB501785C
:1090E000002947D0022936D059D2017A002905D16A
:1090F000012272497248FFF7D4FF50E0714C40687A
:109100000178200003F0CCFF002808D001218DF861
:109110000010019068466C49096888470BE0200000
:10912000FFF7D7FF002806D000208DF80000684622
:109130006549096888472000FFF7CBFFA188814275
:1091400005D301225D495E48FFF7ABFF02E0012035
:109150005E49087023E002218DF80010C06801907C
:10916000012256495648FFF79CFF68465649096850
:10917000884714E0564C2100564803F0A3FF00280E
:1091800005D1012221004E48FFF75CFF06E00320D5
:109190008DF8000068464C4909688847FFE713BD11
:1091A00070B588B005000C001E0047480260002C16
:1091B00001D1072046E0626892B22168414803F07D
:1091C00053FF00283ED1E26892B2A168414803F003
:1091D0004BFF002836D168463F492022FEF780F930
:1091E00068690690287C002801D1002000E0012059
:1091F0008DF814008DF81C60687C002801D00E20CA
:1092000000E000208DF81500E8680290A86803903F
:109210002868019068680090294C304A694620000F
:1092200003F08CFF00280DD1002028490870286821
:1092300010F1010F05D0012220492000FFF731FF76
:1092400000E0002008B070BD70B501001F4D2C7803
:109250001C4803F037FF0600E4B2002C0AD00020BF
:109260002870012215491648FFF71BFF002801D07E
:10927000FFF73AFC300070BDF8B50100154DC9B2DA
:10928000280003F00DFF0400002C12D10C4E30001A
:10929000FFF7F0FE00280CD10D4F3900280003F035
:1092A00011FF002805D1012239003000FFF7CAFE66
:1092B00004002000F2BD0000B7420020B1420020AF
:1092C000B02A00209C41002068420020B2420020C9
:1092D000B0420020AC41002054100300DD90020099
:1092E00080B502681268904701BD80B50168496881
:1092F000884701BD80B501688968884701BDC0689D
:1093000001717047C068007970470121C0684171E0
:109310007047C0684079704780B50020DFF81C179F
:109320000870DFF81C0703F047FF00280AD1DFF8B8
:10933000140704F00AF8DFF81017DFF81007081A0E
:10934000C008002002BDDFF80007DFF80017401A50
:10935000C008704710B50400C9B2002913D0FFF748
:10936000F2FF002100E0491C81420AD2DFF8E0262A
:1093700002EB8102128823689A42F4D12160002016
:1093800002E0052000E0002010BD01B5C9B268462A
:10939000FFF7E0FF002806D1DFF8B806009900EBE0
:1093A000C100006800E0002002BDDFF8A82602EB43
:1093B000C000C9B2012906D00DD3032907D004D3B8
:1093C000042906D007E0022006E0042004E000792A
:1093D00002E0407900E00020C0B2704703000020A6
:1093E0001A68C2F38002002A17D0187810F0030020
:1093F000012802D0022808D00EE008681A68C2F3DB
:109400008312921C1018086006E008681A68920D12
:10941000921C10180860FFE70120C0B27047F8B531
:1094200084B00024DFF8145615F5836003F0E3FFE1
:1094300005F21446300003F0DEFFA8680090DFF864
:10944000180607680098384005EB80000C3004E0EF
:109450000098384005EB80000C306946FFF7BEFFEE
:109460000028F5D100200BE00099394005EB81017F
:10947000C96801AA42F820100099491C0091401CBB
:109480000228F1D3019810F0030001280BD0022824
:1094900012D1BDF80A4000980199890DC91C10EB42
:1094A0009100009008E0BDF80A4000990198C0F3CF
:1094B000831041180091FFE7300003F0A1FF00285E
:1094C00001D00098A860A4B2200005B0F0BD80B51E
:1094D0000021DFF8880503F04BFF80F3100002BD88
:1094E0002DE9F84304000D0016001F00DDF8208070
:1094F000A1465FEA1949FFF7EAFFDFF840157A1C39
:1095000018EA020201EB820259EA0049C2F80C9003
:1095100018EA070701EB87000C30016864F3C50106
:109520000160016866F389110160016865F39F219C
:1095300001600121026861F301020260016831F0FB
:1095400004010160BDE8F1832DE9FC47050089466F
:109550001400AE1C012700208DF80000684602F0C0
:1095600087FDDFF8D884D8F80400C9F80000DFF8D8
:10957000E894D9F80000401CD8F80410411AD8F833
:109580000800411814E008F21C4A0121504603F07B
:1095900017FFFFF744FF0100504603F011FFD9F811
:1095A0000000401CD8F80410411AD8F808004118EF
:1095B000B142E8D33800C0B2002820D00021E4B284
:1095C000002C07D0012060F3010151F0040165F384
:1095D000891106E0022060F3010151F0040165F3F6
:1095E0009F51D8F80420D9F80000024008EB82000F
:1095F0000C300160D8F804003618C8F804609DF8F3
:10960000000002F039FD3800C0B2BDE8F6872DE950
:10961000FC4104000D0017001E00DFF83C04D0F8E8
:109620000080012201A93000FFF78EFF002818D02A
:109630000198801C00210AE0DFF8002418EA0003EA
:1096400002EB830257F82130D360401C491CB14221
:10965000F2D3CDF80080019B320029002000FFF7F3
:109660003FFFDFF8D8030078002803D000F042F86D
:109670000028FBD1C046C046BDE8F38180B5002379
:109680000022FFF7C4FF01BD80B5009201236A46A6
:10969000FFF7BDFF01BDE0B50092019302236A46CA
:1096A000FFF7B5FF07BD1FB5069C0092019302941A
:1096B00003236A46FFF7ABFF1FBDF8B586B00C9CCD
:1096C0000D9D0E9E0F9F00920193029403950496A8
:1096D000059706236A46FFF79AFF07B0F0BDDFF84B
:1096E0005C0381684068814201D1012000E00020D4
:1096F000C0B270472DE9F84785B0FFF7F0FF0028AA
:1097000001D0002040E1DFF834730020C7F81804CE
:10971000BFF34F8FB8680090DFF83C0305680098EE
:10972000284007EB80000C3000240026002104E0D4
:109730000098284007EB80000C306946FFF74EFE8A
:1097400000280BD0D7F81804002807D100987968B2
:109750008842EDD37868B860002015E100200BE066
:109760000099294007EB8101C96802AA42F820103C
:109770000099491C0091401C0228F1D3029810F076
:10978000030002286FD1DDF808805FEA985802983C
:10979000800D502804DADDF808905FEA995901E05D
:1097A0005FF05009029869F39F50029019F1080187
:1097B0000298C0F3C200A24803F002FD0400002C8E
:1097C00000F09480200003F04BFD3300082202A932
:1097D000200003F0AAFD0836681C00992940401AB1
:1097E000800048452DD2002805D000990D4007EB98
:1097F00085010C3101E017F10C01002801D08246EF
:1098000000E0CA46002802D017F10C0500E0002550
:10981000002802D0B9EB000901E05FF00009330035
:109820005246D2B2200003F080FD56FA8AF3002D92
:1098300012D05FFA89F94A462900200003F075FD2D
:109840000AE00098054007EB850010F10C01330099
:109850004A46200003F069FD009818F1030810EB58
:109860009800009042E0029810F0030001283DD1DA
:109870000298C0F38310062803DA0298C0F383101D
:1098800000E00620029960F3891102910298C0F36A
:109890008311891C0298C0F3C2008900684803F054
:1098A0008FFC0400002C21D0200003F0D9FC3300F1
:1098B000082202A9200003F038FD08365FF00008F6
:1098C0000FE00098411C009133000422284007EB70
:1098D000800010F10C01200003F027FD361D18F167
:1098E00001080298C0F383108045EAD3002C2FD0E2
:1098F000D7F81064D7F81804002813D0200003F01C
:10990000B5FC39E000253000FFF703FD012800D148
:109910000125EDB2002D03D021003000FFF7E0FC5F
:10992000F0680668002EEDD1200003F09FFC0020B7
:109930008DF8040001A802F09BFBD7F8180400285A
:1099400001D10098B8609DF8040002F095FB13E087
:10995000D7F8104404E02000FFF7CCFCE06804686E
:10996000002CF8D13E493F48384A801AC00800040C
:1099700050F00200FFF782FEFFF7B1FE002801D190
:10998000012000E00020C0B206B0BDE8F08770B54D
:10999000002600E0761C0A2E13DA2848D0F810447E
:1099A000012501E0E0680468002C05D02000FFF7E5
:1099B000A9FCB042F6D10025EDB2002DEAD030006E
:1099C00001E05FF0FF3070BD38B50500FFF7DFFF45
:1099D000040014F1010F01D120001BE02000010060
:1099E000C9B22800FFF78BFC1449D1F810040028F5
:1099F00005D1C1F810540020E968086009E0D1F8E9
:109A00001004C0680068EA681060D1F81004C068EB
:109A10000560200032BD10B50848D0F8104401217F
:109A2000017007E02000FFF770FC2000FFF75DFCED
:109A3000E0680468002CF5D110BD00006C320020F5
:109A40006415030074170300F004030050040300BE
:109A50000000000050040300B030002088360020D1
:109A60009C14030098040300010049B2002908D4A3
:109A7000012210F01F018A40584940B2400941F8C4
:109A800020207047BFF34F8F55490A6812F4E062F7
:109A9000544802430A60BFF34F8F00BFFDE7806860
:109AA000704700210160BFF35F8F704780B50121CF
:109AB00003F05EFCBFF35F8F002801D1012000E0BE
:109AC0000020C0B202BDBFF35F8F0021016070476C
:109AD000012045490860BFF34F8F20BFFDE780B5E7
:109AE00000208DF80000684602F0C2FAF1EE100A7C
:109AF00030F09F00E1EE100ABFF35F8F2620FFF7E2
:109B0000B3FF9DF8000002F0B7FA01BD80B5002058
:109B1000364908703648FFF7C4FF3649364803F027
:109B20008AFC002002BD80B5FFF7D9FF01F05BFB86
:109B3000002801D041DF02E020BF40BF20BF01BDAF
:109B400010B502E0200003F07DFC2B4C2000FFF755
:109B5000A6FF00280AD02000FFF7A1FF0100274838
:109B60000078096888470028ECD116E0FFF753FF1A
:109B7000FFF7C0FD0028FBD120480178032902D05F
:109B80000078022802D1FFF77DFF06E001F02BFBF1
:109B9000002800D033DFFFF79BFF10BD38B504006D
:109BA000134D2800FFF782FF002814D02000C0B218
:109BB00004280BD00D490878002803D02800FFF7AF
:109BC00082FF08E00D48047001200870FFF7B8FF1D
:109BD0002800FFF778FF31BD0000000080E200E0C0
:109BE0000CED00E00400FA0500050040BA42002038
:109BF000A042002098170300F0410020B942002045
:109C00002DE9F04385B004008D1C14F1360614F1E3
:109C10002C0794F8348094F82A00002819D000F01A
:109C2000FBF914210022E946484600F0AFFA43460A
:109C3000DBB23A00310028008CDF05218DF80010DE
:109C40000190002805D0606C002802D06846616C45
:109C5000884705B0BDE8F0832DE9F04104000D0010
:109C600091F82060A78B5FF0000801E018F101086F
:109C700040463100C0B2C9B288420DD24046C0B29F
:109C8000400105EB0002390089B2A06903F035FC00
:109C90000028EBD0012000E00020BDE8F081F8B5FD
:109CA00005000C0015F120062000FDF7C1FB0100A6
:109CB0000800C0B2002802D0C9B2212901DB0C2063
:109CC00025E03078002801D0042020E0002700E0C3
:109CD0007F1C3800C0B200280AD121003800C0B271
:109CE0004001284403F0A8FC0028F1D100200EE038
:109CF0002000FDF79DFB02003078411C3170C0B29E
:109D00004001054421002800FDF7DAFB0020F2BDE8
:109D10002DE9F047060011F1220791F8285091F83B
:109D200026800024B6F81C905FF0000A01E01AF1CA
:109D3000010A50464146C0B2C9B2884214D25046C8
:109D4000C0B207EB8002494689B2B06903F004FC57
:109D5000002805D0641C2800C0B20028E7D103E029
:109D60002800C0B20028E2D02800C0B2002805D0E8
:109D70002000C0B25FFA88F8404505D0EDB2002D52
:109D800004D1E4B2002C01D0012000E00020BDE8A5
:109D9000F08730B410F1220210F126031878002861
:109DA00001D0042017E0002000E0401C0400E4B2D1
:109DB000002C08D10400E4B232F824400D88AC42F3
:109DC000F3D1002007E01878441C1C700968C0B269
:109DD00042F82010002030BC704780B5002801D127
:109DE0000E2012E0002A01D10E200EE0C9B2002997
:109DF00002D0032904D007E01100FFF750FF04E070
:109E00001100FFF7C6FF00E0072002BD70B5040097
:109E10000D001600002C01D10E2014E015F01F0FCC
:109E200001D107200FE0200000F00EF8E80702D56E
:109E3000012084F82100680702D5012084F827005A
:109E400084F82860002070BD002801D10E2007E0B2
:109E500010F1210100220A7027300021017000203A
:109E600070472DE9F84785B0070088465FF0000984
:109E70005FF0000A142100226C46200000F086F9F1
:109E800017F136000490380000F076F8002810D062
:109E900002208DF80000CDF804806846796C884770
:109EA00017F1680100208ADF41463800FFF7A8FE5D
:109EB0005FE097F82850002497F8210097F8276072
:109EC000C0B2002810D019F1010939004046FFF74F
:109ED000C3FE002808D01AF1010A9DF8080050F0CE
:109EE00001008DF808000124F6B2002E10D019F1FF
:109EF000010939004046FFF70BFF002808D01AF18E
:109F0000010A9DF8080050F004008DF808000124B3
:109F1000CDF804802800C0B200280DD05FFA8AFA7C
:109F20005FFA89F9CA4507D100208DF80000414643
:109F30003800FFF765FE12E0EDB2002D0AD1E4B261
:109F4000002C07D000208DF8000041463800FFF7B4
:109F500057FE04E003208DF80000CDF80480786CF3
:109F6000002802D06846796C884717F16801002004
:109F70008ADF06B0BDE8F08790F83610C1F3C10162
:109F8000C9B2012906D090F83600C0F3C100C0B2B2
:109F9000032801D1012000E00020704790F836101E
:109FA00051F0040180F83610A0210187502141872B
:109FB0000021818790F8361011F0E70180F8361003
:109FC000012180F8371070474FF4C871418606218F
:109FD00081851821C18500210186704778B585B03B
:109FE00004000D1D142100226E46300000F0CEF852
:109FF000287801280ED1606C00280BD004208DF841
:10A00000000014F13600049028788DF804006846AA
:10A01000616C884706B070BD8BDF704770B5040077
:10A020000D00002C01D10E2039E062642A210022AB
:10A030002600300000F0AAF8002D20D0287984F8FE
:10A040002A00287B84F834002868002806D014F100
:10A05000360029680E22FDF733FA02E02000FFF7F0
:10A060009DFFA868002806D014F12C00A9680822DA
:10A07000FDF726FA0CE02000FFF7A6FF08E020001D
:10A08000FFF78CFF2000FFF79FFF002084F82A00D5
:10A0900014F14800A0661F20A4F86C00002070BDD9
:10A0A00030B585B00400002C01D10E202DE0142124
:10A0B00000226D46280000F069F8FFF7ADFF200090
:10A0C000FFF75AFF002808D0606C002805D0012057
:10A0D0008DF800006846616C884714F1680114F13E
:10A0E00036008ADF0400082C0ED0002C0CD0220091
:10A0F00007490848084BC01AC008000450F0010086
:10A10000FFF7C2FA200000E0002005B030BD0000DB
:10A11000340F0300880403005004030078B585B0B1
:10A1200004000D00142100226E46300000F02EF8CD
:10A1300006208DF80000281D01902888ADF8080041
:10A1400014F136000490606C002802D06846616CFF
:10A15000884706B070BD80B50A0010F10801031DE4
:10A16000008810280CD01B2805D01D280DD1100008
:10A17000FFF777FE09E019001000FFF72FFF04E05A
:10A1800019001000FFF7CAFFFFE701BD62F30F22BD
:10A1900062F31F42401810F0030308D0C91A1FD3FE
:10A1A000DB0748BF00F8012D28BF20F8022D13005F
:10A1B00030B414461546103928BF20E93C00FAD8BF
:10A1C000490728BF20E90C0048BF40F8042D89004A
:10A1D00028BF20F8022D48BF00F8012D30BC704781
:10A1E000C91818BF00F8012DCB0728BF00F8012DB2
:10A1F0007047FEE780B50A69002A01D009698847DF
:10A2000001BD78B585B004000D00142100226E4612
:10A210003000FFF7BBFF15F10E012878002836D17A
:10A22000A888012833D1A879227890422FD1002024
:10A230000DE00BE002FB00F30B441B89ADF80E3080
:10A2400002FB00F20A445289ADF81020401C2A7A21
:10A2500090420FD2122202FB00F3CB5A022B02D003
:10A26000032BE7D0E5E702FB00F20A441289ADF8C0
:10A270001220EBE7E068002809D06888ADF80200FA
:10A2800000208DF8000069462000E268904706B083
:10A2900070BD00B585B08288002A12D04A898388B3
:10A2A0009A420ED1C268002A0BD001228DF80020FC
:10A2B00011F110020292C989ADF80C106946C2680A
:10A2C000904705B000BD30B585B004000D0001A871
:10A2D00077491022FDF704F9002C01D10E2023E06C
:10A2E000002D01D10E201FE0A868002801D10E200A
:10A2F0001AE0210001A862DF002815D120788DF82E
:10A3000002000120ADF800004FF6FF706080286861
:10A31000E060686820610020A08000202081A8689B
:10A320006061684600F098FD05B030BD18B585B095
:10A330000A00002A01D0002800D123E04FF6FF7167
:10A3400053888B4203D053888488A34200D019E0FD
:10A350000388112B06D0392B14D101001000FFF710
:10A3600098FF0FE08088538898420AD1D06800286F
:10A3700007D002208DF80000518069461000D26895
:10A380009047FFE706B010BD78B589B00400C9B2A8
:10A39000002901D0012500E000252021002201AE86
:10A3A0003000FFF7F3FE28008DF80000ADB22D0A53
:10A3B0008DF8015001208DF804003E48039004946C
:10A3C000E088ADF816000220ADF81A000020ADF8C4
:10A3D00018006846079001208DF8140001208DF8C0
:10A3E0001500628801A9606903F0ECFA0AB070BD3B
:10A3F00080B5002801D10E200CE041884FF6FF7295
:10A40000914202D0C188002901D1082002E0012137
:10A41000FFF7BAFF02BDF8B588B004000D001600C2
:10A42000002C01D10E2040E0202100226F46380090
:10A43000FFF7ACFE300080B2F5280BDB1E491F4849
:10A440001F4A801AC008000450F00200FFF716F9F6
:10A4500007202AE060884FF6FF7188420BD1194926
:10A460001648174A801AC008000450F00200FFF78F
:10A4700005F9082019E001208DF800000D48029030
:10A4800003942089ADF81200ADF816600020ADF8F5
:10A490001400069502208DF8100001208DF811009F
:10A4A00062886946606903F08DFA09B0F0BD00006A
:10A4B0009C150300F5A10200381403006804030092
:10A4C00050040300C811030080B5002801D10E20FC
:10A4D0000CE04180002A05D05388C3801388838014
:10A4E0009288028189B2406903F0E2FA02BDFEE778
:10A4F0000300002013F0030F09D0521E22BF13F8EF
:10A50000010B11F801CBB0EB0C00F3D0704711F048
:10A51000030F14D1121F22BF53F8040B51F804CBC0
:10A520006045F7D0121D0AD200BA9CFA8CFCB0EB41
:10A530000C0038BF6FF0000088BF01207047521E2A
:10A5400022BF13F8010B11F801CBB0EB0C00F6D0D1
:10A55000521C08BF1046704780B50122012100201F
:10A5600001F093FA002801D0072812D10722022116
:10A57000012001F08AFA002801D0072809D104221D
:10A580000221002001F081FA002801D0072800D123
:10A59000002002BD80B501220221002001F075FAE1
:10A5A000002801D0072812D107220221012001F042
:10A5B0006CFA002801D0072809D10A2201210020C5
:10A5C00001F063FA002801D0072800D1002002BD65
:10A5D00010B50400012001F0C2F9002802D00220C9
:10A5E000207009E0002001F0BAF9002802D00B2009
:10A5F000207001E00020207010BD80B5002001F027
:10A6000094FA002801D0062807D1012001F08DFA24
:10A61000002801D0062800D1002002BD10B5008816
:10A62000102802D0112812D023E01B4C20680028EB
:10A6300009D1FFF791FF002805D0184A11680029B9
:10A6400001D0116888472068401C206011E0124842
:10A650000168491E01600068002809D1FFF79AFFD0
:10A66000002805D00D4A1168002901D011688847DB
:10A67000FFE710BD10B50024084A1060002902D081
:10A680000800FFF7A5FF04480068002802D1FFF783
:10A6900081FF0400200010BD844200208042002081
:10A6A00010B4002100E0491CDFF80829126891422B
:10A6B00010D2DFF8042902EB81039B788478A3424F
:10A6C000F1D132F8212003889A42ECD1DFF8EC086E
:10A6D000006800E0002010BC704710B504002000A6
:10A6E000FFF7DEFF002801D0002010E0DFF8C408EB
:10A6F000016806290AD22168DFF8BC28036842F8FD
:10A7000023100168491C0160002000E0042010BDF6
:10A7100038B5040000250DE0802000FB05F0204442
:10A7200010F53470802101FB05F12144D1F84C1360
:10A7300088476D1CDFF87C0800688542ECD3002058
:10A74000C4F8CC0231BD78B59FB004000D007C2167
:10A7500000226E463000FFF719FDADF802500320CD
:10A760008DF800000194DFF854180868002802D022
:10A7700068460968884720B070BD78B59FB00C0066
:10A78000150090F8C62276214A431044FFF788FF4F
:10A790000600300000280AD06846DFF824187C2222
:10A7A000FCF79EFEADF8025001946846B04720B019
:10A7B00070BD38B50C001500002184F8C8122A00BD
:10A7C00092B201002000FFF7D8FF290089B22000D3
:10A7D000FFF7B9FF31BD2DE9F04105000C0017006E
:10A7E00095F8C6127620414305EB01084046FFF775
:10A7F00057FF06003000002844D0D5F8CC020628C8
:10A8000040D2D5F8CC128020414305EB0100A0F8DE
:10A81000D272D5F8CC128020414305EB010010F52F
:10A82000357041467622FCF74BFEE4B2002C09D08D
:10A83000D5F8CC128020414305EB0100002180F8BF
:10A84000D01208E0D5F8CC128020414305EB01007E
:10A85000022180F8D012D5F8CC128020414305EBBC
:10A860000100C0F84C63D5F8CC02401CC5F8CC02FE
:10A87000D5F8CC02DFF83C170968884202D12800DD
:10A88000FFF746FFBDE8F08170B588B004000D0009
:10A89000202100226E463000FFF778FC94F8C702B2
:10A8A000401C84F8C70294F8C702DFF8081709684B
:10A8B000884233D2002084F8C50294F8C602401CB6
:10A8C00084F8C60294F8C6127620414304EB0100D6
:10A8D000DFF8E41694F8C62251F822100160002136
:10A8E000017102218DF800100121ADF810100068EF
:10A8F000CDF812000394DFF8CC0602902A0092B241
:10A900006946DFF8C406006803F05CF800280DD043
:10A910002A0092B22100FFF74CFF07E0002084F8E4
:10A92000C802290089B22000FFF70DFF08B070BDF2
:10A930000A8990F8C63276214B4318440089824236
:10A9400001D2012000E00020704730B4002A16D167
:10A9500076220C8990F8C652554305442D89AC42A5
:10A9600001D1002019E00989491C198090F8C6120C
:10A9700002FB01F210440089588001200DE0088993
:10A98000401CD488A04201D1002006E00889401C68
:10A990001880D088401E5880012030BC704778B5A0
:10A9A00089B004000D002021002201AE3000FFF725
:10A9B000EDFB042100226E463000FFF7E7FB762214
:10A9C00094F8C602504304EB000194F8C502002835
:10A9D00013D094F8C502431E94F8C60202FB00F29D
:10A9E00004EB0201DBB21220434301EB03000A3007
:10A9F0000089401CADF8000002E0C888ADF80000F6
:10AA00000889ADF8020003208DF804000098059035
:10AA10000494DFF8B00503902A0092B201A9DFF890
:10AA2000A805006802F0CEFF0AB070BD2DE9F04F16
:10AA300089B005000E0017000024202100220DF12E
:10AA400004084046FFF7A2FB95F8C6127620414362
:10AA500005EB01085FF0120995F8C50209FB00F04B
:10AA6000404410F10A0195F8C502401C98F80420F2
:10AA7000904206D16B4600222800FFF766FF0400D3
:10AA800029E095F8C5A207E0594695F8C502401C93
:10AA900085F8C5021AF1010A504698F80420C0B2A0
:10AAA000904218D25046C0B298F80420521E9042EC
:10AAB00002D15FF0000B06E05046C0B209FB00F087
:10AAC000404410F11C0B6B465A462800FFF73DFF2F
:10AAD0000028D9D00124E4B2002C03D10120307029
:10AAE000002012E03A000020307004208DF80400AD
:10AAF000009805900495DFF8CC04039092B201A968
:10AB0000DFF8C404006802F05DFF09B0BDE8F08F13
:10AB1000F8B504000D0094F8C61276204143214494
:10AB20002888B4F8CA22904243D16888002837D1D7
:10AB3000A81DD0F80620C1F8062094F8C412008899
:10AB4000C9B251FA80F1072905DA94F8C412401805
:10AB500084F8C40219E0062084F8C402DFF86C64AB
:10AB6000DFF86C74DFF86C14B81BC008000450F0F8
:10AB70000200FEF783FDDFF86014BE1BF608360402
:10AB800056F002063000FEF779FD29882000FFF715
:10AB900006FF00280DD02A882100FFF70AFE08E0F2
:10ABA0002A8800212000FFF716FE29882000FFF7E1
:10ABB0006BFEF1BD2DE9F84F05000E000024308832
:10ABC000B5F8CA12884240F0AA8095F8C6127620DD
:10ABD000414305EB01087088002840F0808016F1A1
:10ABE000060998F80470B9F800000100C9B251FADA
:10ABF00087F1072905DA98F80410401888F804004E
:10AC00001FE0062088F80400DFF8C0A3DFF8C0B317
:10AC1000B8F80020DFF8C413BBEB0A00C00800043A
:10AC200050F00200FEF730FDDFF8B413BBEB0A0A68
:10AC30005FEADA0A5FEA0A4A5AF0020A5046FEF769
:10AC40001DFDFFB25FF0000A25E05FF0120B0BFB69
:10AC500007F040440A300A2101FB0AF14944891CEB
:10AC60000A22FCF72DFC00200BFB07F141448882EF
:10AC700000200BFB07F14144C88200200BFB07F1C9
:10AC80004144088300200BFB07FB08EB0B014883C2
:10AC90007F1C1AF1010A98F804008742D5D31220CC
:10ACA000474308EB0700B0F108012800FFF740FE1A
:10ACB000002803D098F80400062801D101240FE0F1
:10ACC00098F8040085F8C50231882800FFF767FE70
:10ACD000002805D032882900FFF76BFD1FE0012412
:10ACE000E4B2002C1BD0002085F8C50232886946EA
:10ACF0002800FFF79BFE002804D032882900FFF7C8
:10AD000058FD0CE09DF80000002808D03288012191
:10AD10002800FFF760FD31882800FFF7B5FDBDE88A
:10AD2000F18FF8B504000D002888B4F8CA128842E3
:10AD300063D194F8C612762041432144AA1D94F8A9
:10AD4000C5321220434301EB030010F10A03688867
:10AD5000002839D1002600E0761C1088864233D2C4
:10AD6000062000FB06F71744BF884FF4245CB7EBBE
:10AD70000C070CD07F1E10D07F1E02D0BF1F12D038
:10AD800016E000FB06F010444088588110E000FBFC
:10AD900006F01044408898810AE000FB06F0104459
:10ADA0004088D88104E000FB06F0104440881882F7
:10ADB00058890028D0D098890028CDD0D88900287B
:10ADC000CAD0188A0028C7D000208DF8000094F857
:10ADD000C502401C0979884210D101208DF800007D
:10ADE0009DF80000002808D02A8801212000FFF7E4
:10ADF000F2FC29882000FFF747FDF1BD94F8C50259
:10AE0000401C84F8C5022A8869462000FFF70EFE20
:10AE10000028E5D02A882100FFF7CBFCEDE70100F0
:10AE20000020002901D10E2015E00A68002A01D176
:10AE30000E2010E04A68002A01D10E200BE000220B
:10AE40005C4B1A600122674B1A700A685B4B1A60F0
:10AE500049685D4A1160704780B5002801D10E2015
:10AE600009E060490978012901D0082003E053492D
:10AE70000968FFF732FC02BD70B588B004000D0010
:10AE80004FF4BA61002226003000FFF77FF920213D
:10AE900000226E463000FFF779F94B4E290089B247
:10AEA000306802F005FE002830D1A4F8CA52002014
:10AEB000C4F8CC02002084F8C702002084F8C6023F
:10AEC000002084F8C50294F8C6127620414304EBB2
:10AED0000100394994F8C62251F82210016002217C
:10AEE0008DF800100121ADF810100068CDF81200A7
:10AEF0000394344802902A0092B26946306802F006
:10AF000061FD002802D1012184F8C81208B070BD8B
:10AF100080B5002801D10E2014E0324A1278012AAF
:10AF200001D008200EE0234A1268002A01D108202F
:10AF300008E090F8C822002A01D0112002E089B26E
:10AF4000FFF79AFF02BD0988B0F8CA22914206D1E4
:10AF5000002180F8C8124FF6FF71A0F8CA1270479E
:10AF600080B50A00002823D0002A21D01D49097885
:10AF700001291DD10188112915D0302904D0322989
:10AF800007D033290AD013E0011D1000FFF7C0FDE0
:10AF90000EE0011D1000FFF70DFE09E0011D10007D
:10AFA000FFF7BFFE04E0011D1000FFF7CCFFFFE735
:10AFB00001BD0000744200200C4100206C420020C2
:10AFC00010060300B3A702007042002050040300E3
:10AFD0006004030074100300E40903002C0A03005A
:10AFE00004070300B3420020010049B2002909D43C
:10AFF000012210F01F018A40DFF81C1240B2400904
:10B0000041F820207047010049B2002905D4DFF83B
:10B010000C1240B2085C400908E0DFF8041240B2AC
:10B0200010F00F00084410F8040C400970478068C5
:10B0300070470100080040B2202805DADFF8E4017B
:10B04000C84010F001000BE0080040B2402806DACA
:10B050007FF001002039C84010F0010000E001201D
:10B060007047082803D2EC210141C80701D4002011
:10B0700000E00120704710B50400200040B2FFF747
:10B08000D8FF002802D142F2010022E0200040B2A5
:10B09000FFF7B9FFFFF7E5FF002802D142F20200F7
:10B0A00017E06149886800280ED0200040B24009AE
:10B0B00051F82020012314F01F0083401A4364B28A
:10B0C000640941F8242003E0200040B2FFF78CFF20
:10B0D000002010BD1FB504005449684602F0ABF9CA
:10B0E00002E0684602F0AEF96846FFF7A0FF0028CC
:10B0F0000BD06846FFF79BFF026841682000C0B292
:10B1000090470028EDD1112000E0002004B010BDD0
:10B110001FB504004649684602F08DF90AE068460A
:10B12000FFF785FF026841682000C0B2904768467B
:10B1300002F088F96846FFF77AFF0028EFD11FBDBB
:10B1400080B51620FFF797FF002801D0FDF7CCFC53
:10B1500001BD7CB5374D2878002801D0082041E09A
:10B16000354E012030700020FFF7B4FF112801D1C7
:10B17000002037E00020FFF7CBFF30480068019047
:10B1800000208DF80000684600F072FF0DF101000C
:10B1900012DF0400002C05D19DF80100012801D127
:10B1A00011DF0400002C0AD1254901A810DF04009A
:10B1B000002C02D10120287001E0002028709DF8A9
:10B1C000000000F059FF002C01D020000AE0002010
:10B1D000307000201B490870FFF7B2FF0120FFF715
:10B1E00097FF002076BD134800787047E0B51649F8
:10B1F000684602F020F908E06846FFF718FF01688A
:10B2000040688847684602F01DF96846FFF70FFF5F
:10B210000028F1D107BD000000E100E000E400E0FB
:10B2200018ED00E0FC06FFBDCC410020A417030090
:10B23000B0170300BB420020BD420020A419030048
:10B24000A9BB0200BC420020BC17030080B5FFF779
:10B25000CDFF01BD80687047002801D10E2003E0BA
:10B26000A34909680160002070477FB505000C0004
:10B270002000FFF7F1FF002840F0B9800C210022E8
:10B280006E463000FEF782FF8DF8005001208DF8E9
:10B2900002000620ADF8040022686946202069DF1C
:10B2A00000280CD002F06CFC020092499248934BAB
:10B2B000C01AC008000450F00100FEF7E5F90C21A7
:10B2C00000226E463000FEF761FF00208DF801007D
:10B2D00001208DF8020001208DF8030022686946E4
:10B2E000402069DF00280CD002F04AFC02008449AB
:10B2F0008148824BC01AC008000450F00100FEF7DC
:10B30000C3F90C2100226E463000FEF73FFF8DF896
:10B310000050F720ADF8020022686946232069DF5B
:10B3200000280CD002F02CFC020076497248734BC6
:10B33000C01AC008000450F00100FEF7A5F90C2166
:10B3400000226D462800FEF721FF01208DF8000045
:10B3500022686946012069DF00280CD002F010FC49
:10B36000020069496448654BC01AC008000450F0E7
:10B370000100FEF789F90C2100226D462800FEF736
:10B3800005FF4FF4B060009022686946A12069DF94
:10B3900000280CD002F0F4FB02005C495648574BE1
:10B3A000C01AC008000450F00100FEF76DF90C212E
:10B3B00000226D462800FEF7E9FE9DF8000010F01F
:10B3C000FE008DF8000022686946A02069DF002891
:10B3D0000CD002F0D5FB02004D494748474BC01A3C
:10B3E000C008000450F00100FEF74EF9002004B040
:10B3F00070BD484800684FF48061484310F1005028
:10B4000070472DE9F04105002E68280060DF040038
:10B410002868864226D2394FDFF8DC803E49B8EBF7
:10B420000700C008000450F00200FEF727F92B685F
:10B4300032003A49B8EB0700C008000450F002009F
:10B44000FEF729F9FFF7D5FF02002868121A3449E0
:10B45000B8EB0707FF083F0457F002073800FEF774
:10B4600013F901E02868B042002C03D101202D49D6
:10B4700008700DE0200002F083FB02002A491E48FC
:10B480001E4BC01AC008000450F00100FEF7FCF883
:10B490002000BDE8F08118B5ADF5017D21480078A8
:10B4A000002816D103E0052801D0FDF71DFB0DF59E
:10B4B000027D10BD01A8FFF7CDFE026841682000A3
:10B4C000904701A801F0BEFF01A8FFF7C3FE0028C6
:10B4D000F0D14FF4FA70ADF80000694604A861DFBE
:10B4E0000028E0D104AC114901A801F0A4FFEBE76A
:10B4F000A8190300740A0300B004030050040300F9
:10B500004C090300BC0A030098090300B8070300B4
:10B510000C0803000C010010240D0300300C030084
:10B52000800D0300BE420020B4100300D4170300B6
:10B53000F721018017214180002101710021417113
:10B54000FB2181711B21C1717047F8B584B00500E2
:10B55000DFF89803D0E90023CDE90223ADF8081005
:10B56000ADF80A10062100226C462000FEF70EFE00
:10B570006A4602A9280080B290DF0400002C37D070
:10B58000200002F0FDFA0300DFF86463DFF8647363
:10B59000ADB22A00DFF86013B81BC008000450F0F9
:10B5A0000100FEF778F8BDF80000002803D1BDF8CF
:10B5B000020000280CD0BDF80230BDF80020DFF8F2
:10B5C0003C13B81BC008000450F00100FEF763F8FC
:10B5D000BDF8040000280BD0BDF80420DFF82013CC
:10B5E000BE1BF608360456F001063000FEF74CF894
:10B5F000200005B0F0BD38B58C88220092B200EB77
:10B60000C202951D0279AA71C97B012902D00229C3
:10B6100003D005E00088288002E040882880FFE70A
:10B620006888298888421DD22988200080B2A5DF39
:10B63000002802D10120687114E0112802D10120F4
:10B6400028710FE002F09CFA0200DFF8B812DFF870
:10B65000A402DFF89C32C01AC008000450F00100B8
:10B66000FEF712F8E879A979884205D2A97989B25A
:10B67000200080B2FFF769FF31BD80B5898800EBFB
:10B68000C100801DFFF754FF01BDFEB58A884989BE
:10B6900013009BB200EBC3039C1D0B0025889BB2DB
:10B6A000AB4200D3218861806188172901DA172114
:10B6B00000E061886180016900290FD0617900296B
:10B6C0000CD09149D1E90067CDE90067ADF80220BF
:10B6D0006188ADF8041069460269904700206071E6
:10B6E00000202071F7BD7CB504008D88C888290032
:10B6F00089B204EBC1018E1D010089B2172901DA5C
:10B700001720FFE70100328889B2914200D33088C8
:10B710007080002030713188280080B2B5DF0028A9
:10B720000CD002F02DFA020078497248704BC01A12
:10B73000C008000450F00100FDF7A6FF7079002852
:10B7400010D1206900280DD07148D0E90023CDE93F
:10B750000023ADF802507088ADF80400694620005F
:10B760002269904773BD18B58BB004006846091D67
:10B770002C22FBF7B5FEBDF80010BDF804000A004E
:10B7800092B204EBC20250732069002810D06148C5
:10B79000D0E90023CDE90023ADF8021089B204EB13
:10B7A000C100407B8DF80400694620002269904763
:10B7B0000CB010BD10B50A1D118800EBC100801D32
:10B7C000918883790C00E4B2A34201D28179FFE72A
:10B7D000C9B289B21088FFF7B8FE10BD38B50500B0
:10B7E000002D01D10E2011E02961F7202880F720DB
:10B7F0006880FB202871002405E005EBC400801D53
:10B80000FFF796FE641C002CF7D0002032BD002804
:10B8100001D10E2008E00A0092B2173AE12A01D3C2
:10B82000072001E041800020704738B50D00848872
:10B83000210089B2002957D1018810290AD0112985
:10B840000DD023291FD0242918D03A290CD05529EE
:10B850000FD01DE001002800FFF7CDFE18E0010029
:10B860002800FFF70AFF13E001002800FFF70DFF93
:10B870000EE001002800FFF736FF09E00100280074
:10B88000FFF771FF04E001002800FFF793FFFFE7D7
:10B89000200080B205EBC000807A002824D0200070
:10B8A00080B205EBC000C188200080B2A5DF00286F
:10B8B0000BD10020210089B205EBC1018872012063
:10B8C000A4B205EBC401C8720EE011280CD002F03E
:10B8D00057F902000B490748054BC01AC00800047D
:10B8E00050F00100FDF7D0FE31BD000088180300C4
:10B8F0005004030078040300B40803004C0B030059
:10B9000060070300FC0B030090180300F40C030015
:10B9100098180300A01803005FF0A040704711B50D
:10B9200081B00C0001A8FFF7F7FF019900EB81013E
:10B93000D1F8001731F44031019A00EB8202C2F8CD
:10B940000017019900EB8101D1F80017E4B251EA28
:10B950000441019A00EB8200C0F8001713BD80B5C6
:10B96000002802D102F047F900E0002002BD2DE9D5
:10B97000F04106000F00002500203000C0B202F0A8
:10B9800046F90400002C41D1FFB2002F03D0022F52
:10B9900036D021D33AE0544F032000FB04F03D5C45
:10B9A000032000FB04F03844407800280CD0DFF876
:10B9B0003C8142464FF480414D480068FDF7C7FA8C
:10B9C000002801D188F80060032000FB04F038440F
:10B9D00080784849085519E045480068FDF7EBFABA
:10B9E00041494448005D032202FB04F20A44927874
:10B9F000904204D10320444301EB0400857805E024
:10BA000039490320444301EB040045782800C0B2C3
:10BA1000002807D038490868002803D02800C0B2A1
:10BA200009688847BDE8F08180B502210078FFF7FA
:10BA30009EFF01BD10B500222F4B1960800722D553
:10BA4000002406E001220021200000F01EF8020080
:10BA5000641C52EA04000028F4D0002A06D140F207
:10BA600033320121254802F01FFA0200002A02D1D8
:10BA700002F059FA0200002A05D1214A00211C488F
:10BA8000FDF74DFA0200100010BD10B4002300288D
:10BA900025D11400E4B2012C07D10A00D2B2002A49
:10BAA00002D110F10E0200E00022C9B2002903D039
:10BAB000022906D00BD310E00B4C0321484322543B
:10BAC0000EE0094C032148432044427008E0064C34
:10BAD000032148432044827002E0072300E007234B
