:020000040800F2
:20000000D018002041020008F51B0008F71B0008F91B0008FB1B0008FD1B00080000000001
:20002000000000000000000000000000FF1B0008011C000800000000031C0008051C000829
:200040009102000891020008910200089102000891020008910200089102000891020008C8
:200060009102000891020008910200089102000891020008910200089102000891020008A8
:20008000910200089102000891020008910200089102000891020008910200089102000888
:2000A000910200089102000891020008910200089102000891020008910200089102000868
:2000C00091020008910200089102000891020008910200089102000891020008291C000896
:2000E000910200089102000891020008910200089102000891020008910200089102000828
:200100009102000891020008910200089102000891020008711C000891020008910200080D
:200120009102000891020008910200089102000891020008910200089102000891020008E7
:20014000910200089102000891020008000000009102000891020008910200089102000862
:200160009102000891020008910200089102000891020008910200080000000000000000DD
:08018000910200089102000841
:20019000034613F8012B002AFBD1181A0138704701F0FF01102A2BDB10F0070F08D010F890
:2001B000013B013A8B422DD010F0070F42B3F6D1F0B441EA012141EA014122F007047FF032
:2001D00000070023F0E80256083C85EA010586EA010685FA47F5A3FA87F586FA47F6A5FA55
:2001F00087F68EB9EED1F0BC01F0FF0102F0070232B110F8013B013A83EA010313B1F8D174
:200210000020704701387047002D06BF35460338073815F0010F07D1013015F4807F02BF39
:20023000013015F4C03F0130F0BC0138704700BFDFF834D000F026F8002103E00B4B5B58F3
:20025000435004310A480B4B42189A42F6D30A4A02E0002342F8043B084B9A42F9D302F060
:2002700015FB00F06BFEFEE7D0180020944D0008000000207C0000207C000020D0080020DF
:20029000FEE70000034AD2F8883043F47003C2F88830704700ED00E00020704730B50346F5
:2002B000EFF3108472B60A4A0A4D10680144A94206D90C221A604FF0FF3084F3108830BD4C
:2002D000054DA942F5D31160421CF6D1F1E700BF0400002000800120D018002070477047A1
:2002F000FEE738B51446D518AC4201D1002038BD01F06AFC04F8010BF6E770B51D461446E2
:20031000D618B44201D1284670BD14F8010B01F003FCF6E7132303604FF0FF3070471323A3
:2003300003604FF0FF307047132303604FF0FF30704702294FF0000303608CBF002001200B
:20035000704708B502F08AFA032303604FF0FF3008BD000038B5374DD5F894301B014ED5A6
:20037000354C364802F040FEE36E23F00203E366E36E23F00403E366D5F8943043F400030D
:20039000C5F89430E36E002543F02003E3662846656600F0A7F9012809BF294BE36E23F025
:2003B0007F4303F100631CBF43F00203E3664FF0010008BFD3F8085800F094F901281FD1F0
:2003D000204BD3F8E0151E4B4FF6FF7288B2904223F07F431FBF1C4A03F1082302EA412230
:2003F000083314BF9B1803F108331A6895420ED31648294602F0F8FD0F4B154A1A6638BDE1
:200410000D4AD36E43F00403D3660022F0E7BFF36F8F104B196841F4807119601B6813F413
:20043000807F054BD96E14BF41F0010121F00101D966DDE70010024000280040D44600081E
:20045000008000080070FF1F00FEFF01E7460008159287C70000014008B52A4A136943F02D
:2004700010031361284A936843F400539360274B1A6842F008021A609A6842F008029A6019
:200490005A6942F008025A611A6842F480121A609A6842F480129A60A3F55C439A6822F4BB
:2004B00080629A60DA685207FCD5CA225A6253225A6258619A6842F480629A60DA6822F4E6
:2004D0008062DA60124AD36A43F00A03D362114B114A19680A431A604FF090420220116837
:1004F00061F440011160916941F0006191619A6974
:2005000042F080729A6102F01FF9024B074ADA6008BD00BF00ED00E0000001400004014003
:2005200000100240000800483FFFFCFF0400FA05064841880F2938BF0F21B1F5006F28BF6B
:200540004FF40061083000F0B9BD00BF0000001038B5184C00F084FD2378013B012B1BD9D1
:20056000C02315496380302202231448237002F096FE13491348302202F091FE124913482B
:20058000302202F08CFE12491248302202F087FEFFF7CEFF606038BD6568FFF7C9FF854245
:2005A000DED12378012BF6D10949302204F19800ECE700BF000000100D4700083800001087
:2005C00014470008680000101D470008080000103047000898000010014B5888704700BFF3
:2005E00000000010014B5868704700BF0000001000487047080000100048704738000010FB
:200600000048704768000010004870479800001010B5094A094C1368013303F07F032168A2
:200620009942FCD006491360C854064A136843F04003136010BD00BF8401002088010020A7
:2006400004010020005000400B4B0C4A1968136899420AD01368013303F07F031360136876
:20066000074AD25C074B1A857047064A136823F040031360704700BF8401002088010020FB
:200680000401002000500040024B1A68024B1A60704700BF00010020FC000020054A136892
:2006A000013303F07F031360034B998C1368034AD1547047FC000020005000407C000020BF
:2006C000034B1868034B1B68C01A18BF01207047FC00002000010020044A1368013303F0C5
:2006E0007F0313601368024AD05C7047000100207C0000202DE9F843044600F0B1FC64B34F
:20070000224BD3F8E0354FF6FF7299B2914227D01F4C04EA432404F100641E4B23F07F436A
:200720001A19D2F80088D2F80478C3F5FF2202F2FF7242451CD323444FF40076002503F5FD
:20074000006408EB0609B1450CD8BD4212D1124802F052FC0120BDE8F8834FF00064DCE736
:200760000E4CDAE7A05D00F099FC01360546EAE70025EAE741460A4802F03EFC09482A46CD
:20078000394602F039FC0020E5E700BF0070FF1F00FEFF0100800008444700080000080851
:2007A0005C4700086F47000810B50020FFF7A2FF20B9BDE81040144802F0A4BC1348144C1D
:2007C00002F0A0FC01F0CEFA124B4FF0E0221865136924F07F4423F00103136104F1006381
:2007E00003F5206323F0604323F07F03C2F8083D01F05EFAD4F8043A62B6D4F8002A82F35E
:200800000888BDE810401847894700089F470008008000080028004070B51E4BD3F8E035D0
:200820004FF6FF7299B2914216BF1B4C1B4C04EA43241B4B23F07F4303F1FF334FEA13211E
:20084000DBB2C0B018BF04F1006403B101310D022946204600F0D4F800F05CF80026AE428B
:2008600006F1006206D100F039F90E4802F0C4FB40B070BDF3B212780DF80320FF2B07D1A9
:2008800020466A464FF4807100F080F904F580740136E4E70070FF1F00FEFF01000008081A
:2008A00000800008AA470008F8B5104B104FD3F8E035104E99B24FF6FF72914217BF0E4C0E
:2008C0000E4C04EA432404F10064013C4FF000652A7814F8013F9A4204D0384602F08CFB9A
:2008E000FFF79AFF0135B542F2D1F8BD0070FF1FBF470008E041000800FEFF0100000808F1
:2009000010B50023934200D110BDCC5CC4540133F8E70000024B4FF0FF321A60704700BF7C
:200920008C010020C1F3080208B552B902688A4205D040F8041B4FF40072FFF7E1FF012076
:2009400000E0002008BD00000A4BD3F8E0254FF6FF7391B2994217BF074B084B03EA42230B
:2009600003F1006383428CBF00F17840C01AC00A704700BF0070FF1F00FEFF0100000808B1
:2009800010B5124B1C68124BD3F8E025E4054FF6FF7391B20CD4994217BF0E4B0E4B03EA71
:2009A000422303F1006398422CBF0220012010BD994217BF074B084B03EA422303F10063A7
:2009C000834294BF01200220F1E700BF000001400070FF1F00FEFF0100000808064B5A6934
:2009E000002ABFBF054A9A6002F188329A60BABF5869C00F0020704700200240230167454D
:200A000030B520F4FF6525F007050144491B01F2FF74C1F30A0187B0C4F3CF2409B10134BA
:200A2000A4B2FFF7DBFF134A136943F400431361002302930123059305EBC424A54207D1BE
:200A400001200C4A536943F00043536107B030BD2846FFF779FF04902846FFF791FF01A987
:200A6000039002A800F052FC05F500650028E5D00020E6E7002002402DE9F8430546FFF7DE
:200A8000ADFF154A136943F400431361002405F1040909EB0403D3E90067296804EB010813
:200AA00032463B464146002000F006FC88B9D8E90023BB4208BFB24204D10834B4F5007F8E
:200AC000E7D10120044A536943F000435361BDE8F8830020F6E700BF0020024008B50648C0
:200AE0000368013305D0FFF7C7FF003818BF012008BD0120FCE700BF8C01002013B504464F
:200B00000191FFF7B9FF20B101992046FFF70AFF00B90024204602B010BD2DE9F0411F4657
:200B2000036821F4FF76013304460D46904626F0010624D02368B34205D020463146FFF7E0
:200B4000DDFF044600B3281D2568401B204406F500764744231DC31AB3F5007F06D32046AC
:200B60003146FFF7CBFF044670B1043018F8013B00F8013BB845EDD10120BDE8F0813146B6
:200B8000FFF7D0FE0028D5D10020F6E70B4601460148FFF7C2BF00BF8C01002010B50B4CE6
:200BA0000B4B226E9A4202D0E36E1A0705D5012000F02CFF074B236610BD226E064B9A42B4
:200BC00002D0E36EDB06F7D50020F1E7002800409418C845159287C74873129410B52E4C97
:200BE000E36E9B0702D52D4802F08CFAE36E5C0702D52B4802F086FA274B2A4A196E91428E
:200C000048D1DB6E03F00603062B09D1264802F079FA012000F0FAFE4FF41670FFF724FCB0
:200C20001D4AD36E13F0060F12D1204802F06AFA1F4B20481968090A013102F0DDF9164A93
:200C4000D36E23F04003D366BDE81040FFF7ACBD174B1968D26EC80514D5510705D5BFF3B3
:200C60006F8F1A6822F480721A60114B1B6813F4807F094BDA6E14BF42F0010222F00102D4
:200C8000DA66D5E79207F0D5BFF36F8F1A6842F48072E9E710BD00BF00280040D6470008B7
:200CA000F0470008159287C70A48000823480008000001403948000810B596B044220021D7
:200CC00005A801F00FFE14220021684601F00AFE4FF4007001F002FD01224FF48033CDE9F9
:200CE00005230324022307220A2105A8CDE91212CDE90F34CDE91433119301F0DDF80F2313
:200D0000CDE90034042100236846CDE90233049301F056FB074B08481860084B1A784FF4ED
:200D20007A73B3FBF2F3B0FBF3F001F06DFD16B010BD00BF0000002000B4C404100000202C
:200D40000D4B1A6842F480721A601A6842F480721A6003F5D0334FF40042C3F89020D3F83D
:200D6000902042F48072C3F89020D3F8902042F00102C3F89020704700700040214BD3F877
:200D8000882022F44072C3F888209A6D42F480129A651D4A2D23136040F2B623D3601B4BE4
:200DA000196821F040711960196841F000711960996841F040719960596A41F4002159622B
:200DC000D3F8001421F03001C3F80014D3F8001441F02001C3F80014D3F8081441F03001DA
:200DE000C3F80814D3F8201441F40061C3F82014074B4FF400115960136843F020031360F5
:200E0000704700BF00100240005000400008004800E100E0144BD3F8882022F03002C3F898
:200E200088209A6D42F480229A65104A2D23136040F2B623D3600E4B196821F470011960F8
:200E4000196841F420011960996841F470019960596A41F4EE415962064B8021596013689A
:200E600043F020031360704700100240004800400008004800E100E070B514228AB00DEB7A
:200E80000200002101F02EFD2E4B2F4DDA6C42F00102DA64DA6C02F001020092009ADA6CB8
:200EA00042F00202DA64DA6C02F002020192019ADA6C42F00402DA64DA6C02F004020292C6
:200EC000029ADA6C42F00802DA64DA6C02F008020392039ADA6C42F08002DA64DB6C03F0D0
:200EE00080030493284600224FF48071049B01F0E7FB00224FF400614FF0904001F0E0FB01
:200F0000012600244FF4006305A94FF09040CDE90536CDE9074401F0E9FA082305A9284616
:200F2000CDE90534079601F0E1FA4FF4A87305A92846CDE90536CDE9074401F0D7FA0AB071
:200F400070BD00BF001002400008004810B500F0EDFEFFF7FDFAFFF7AFFEFFF78DFFFFF75B
:200F60000DFFFFF757FF00F01BFE344A936943F480739361324BDB6ED8070CD5314BD3F8AB
:200F80009430190107D4BFF36F8F02F1F822136843F4807313602C4B294C19682B48226E53
:200FA000090A013102F028F8FFF77EFCFFF7C8FEE36E5B0606D4234BD3F89420002A12DA1F
:200FC0000123A366FFF7CEF9FFF7E8FDFFF706FE1B4B1F4A1A661F4802F094F81E4B1F4A4C
:200FE000DA60002010BDD3F89420500001D50223E7E7D3F89420910001D50323E1E7D3F893
:201000009420D20001D50423DBE7D3F89420100101D50523D5E7D3F89420510101D5062371
:20102000CFE7D3F89420920101D50723C9E7D3F8943013F0807318BF0823C2E700080048B8
:201040000028004000100240000001405A480008159287C78D48000800ED00E00400FA0549
:2010600030B50B480B4C00221346082103F001055B0805B163400139F8D140F822300132C8
:20108000B2F5807FF0D1044B4FF0FF321A6030BD940300202083B8ED08000020054B0649FD
:2010A0001A685040C0B251F8200080EA12201860C0437047080000209403002070B5054626
:2010C0000C4649B1FFF7CCFF2E1915F8010BFFF7E5FFB5420446F8D1204670BD0A4B1A6E4F
:2010E00042F001021A661A6E82B002F001020092009A9A6D42F080529A659B6D03F0805388
:201100000193019B02B07047001002400C4B5A6911F0010F14BF22F4006242F400625A611B
:201120005A6922F4FF6242EAC00058615A6942F002025A615A6942F480325A61704700BF40
:2011400000200240144A137D012B02D0137D032B0CD1124B196841F400611960196821F423
:2011600000611960196841F400711960137D022B02D0137D032B0CD1084B196841F48051F1
:201180001960196821F480511960196841F480611960002313757047940700200020024067
:2011A00070B500F0DFFD424C054642F20F762369DB036BD420694CF2FA3202406DD0236905
:2011C000980741BF3B4A136843F002031360384A1369190741BF37490B6843F008030B600B
:2011E0001369DB0641BF334A136843F0100313602F4A13699E0641BF2E490B6843F0200308
:201200000B6013695D0641BF2A4A136843F040031360274A13691C0641BF26490B6843F088
:2012200080030B601369D80541BF224A136843F4807313601E4A1369990541BF1D490B6888
:2012400043F400730B6013695A0441BF194A136843F480431360164A13691B0441BF1549FB
:201260000B6843F400430B609369002BBFBF114A136843F0004313600D4B9A6942F04042A3
:201280009A614CF2FA321A61012070BD00F06AFD401BB0428BD90320F7E7206910F001008D
:2012A000F3D0236943F0010323611046EDE700BF0020024094070020F8B50D4617461E465D
:2012C000FFF76EFFE0B90F4B0F4C1860216811F4806117BF2268197522F4806222601CBF33
:2012E00002221A75636943F0010363612F606E60FFF756FF636923F001036361FFF722FF0E
:20130000F8BD00BF94070020002002402DE9F84305460F46FFF744FF0446002833D1214A31
:20132000214B1060196811F4007F19682ED021F4007119601968480543BF196821F4806107
:201340001960012348BF032313754FF0FF333B60AE68DFF85480DFF85490D5E9023213446A
:20136000B3420ED969683046FFF7D0FEFFF718FFD8F8143003EA0903C8F8143080B13E6099
:201380000446FFF7DFFE2046BDE8F883490505D5196821F4806119600223D5E71075D4E771
:2013A0000136DAE7940700200020024005F8FFFF10B50E4CA36943F04003A36140F68C2096
:2013C00000F0D6FCA36943F48003A3614FF4FA6000F0CEFC4FF090424FF49670936943F0A1
:2013E00000639361BDE8104000F0C2BC0008004810B54FF090420B4C936943F4006393612C
:201400004FF4967000F0B4FCA36943F04003A3614FF4967000F0ACFCA36943F48003A361B2
:2014200010BD00BF0008004870B5044600252046FEF7AEFEAEB2B04205F1010500D870BDE2
:20144000A05DFFF7E5F8F2E72DE9F0412F4C96B00B4604AD04F11007206861682E4603C63F
:201460000834BC423546F7D12178CDE90032317000F078FCDDE900322549074609A801F014
:201480007DFE09A8FFF7D0FF00263546344641F28838FFF715F990B3142C03D9002016B004
:2014A000BDE8F081FFF718F905F158026A44C3B212F8482C9A4205D10135102D03D10126FE
:2014C0000025E6E700250D2BE3D00A2B10D1B6B104F158030DEB030400230E4904F8343C58
:2014E00003AA09A801F06AFE0028D7D00398D6E72EB104F158026A44013402F8343C00F0A3
:2015000031FCC31B4345C4D9C8E700BFBB4800089A480008B84800082DE9F84F15468046B2
:201520000E4600F01FFCDFF848904FF47A720746554300244AF6AA2AC9F800A008EB040BEE
:20154000FFF7BEF838B9B4420ED200F00BFCC31BAB42F1D908E0C9F800A0FFF7BDF8013463
:20156000B4420BF8010BEBD32046BDE8F88F00BF003000402DE9F84F14460E468146FEF720
:2015800007FE804600F0EEFBDFF84CA04FF47A720746544300254AF6AA2BCAF800B0FFF72F
:2015A0008FF858B1CAF800B0FFF796F819F8053083420CBF01350025454507D000F0D2FB56
:2015C000C01BA042E9D90020BDE8F88F0EB9FFF75BF80120F8E700BF0030004013B50C46E7
:2015E00001920093FFF720FFDDE90021204602B0BDE81040FFF7BEBF2DE9F04FADF5257DB0
:20160000044600F0AFFB794A23464FF4167107460EA801F07FFD76494FF4167300220EA81D
:20162000FFF7DCFF002800F0D3802046FEF7B0FD54FA80F0013C014610F8013D2F2B01D0B3
:20164000A042F8D12F2202A801F029FE0023694A8DF837304FF4167102AB0EA801F05AFD95
:201660000EA8FFF7E1FEFFF70FF8322101220EA8FFF752FF60490EA801F024FE002800F0E5
:20168000AF805E4901AA0A3001F098FD8046002800F0A88001995A4801F0AEFC0199594BEE
:2016A000A1F114029A4200F29F80574B574CD3F8E025DFF87C91DFF87CA1DFF87CB14FF65F
:2016C000FF7390B2984218BF514B24F07F4404F108241ABF03EA4223E41804F50024204667
:2016E000FFF78EF9FFF716F90026019BB3422AD80024FFF7F3F9002C6BD10120FEF7FAFF32
:20170000444C4549454D002841D14548216601F073FC2B6813F4807FE36E14BF43F0020376
:2017200043F00403E36600F01DFB4FF47A71C01B90FBF1F13B4801F05FFC5FFA88F00DF506
:20174000257DBDE8F08F02AA31460EA8FFF77CFE05460028F7D00146484601F04DFC02220D
:2017600029460EA8FFF7D8FE01468046504601F043FC3146584601F03FFC0EAA29463019F4
:20178000FFF704FA08B12E44AFE70524B1E72B6813F4807FE36E14BF23F0020323F00403E4
:2017A000E366BFF36F8F1D4B1F481A6882F480721A601B6813F4807F164BDA6E14BF42F0C6
:2017C000010222F00102DA66196601F015FCAAE701241648214601F00FFC4FF00008A2E7E9
:2017E0000224F6E70324F4E70424F2E7CC480008E3480008F4480008094900081349000892
:2018000017490008ECCF07000070FF1F0080000800FEFF0100280040159287C700000140EC
:20182000564900089A490008724900088C4900082749000839490008474900082DE9F04F87
:20184000ABB006460F46924600F08CFADFF8B481039003250224574801F0CEFB4FF00A09A6
:201860005548022300224146FFF7B8FEC0B2002874D109F1FF3919F0FF09F1D1013D15F02A
:20188000FF0544D0FFF794FD4FF47A7000F070FAFFF7AEFDDFE734B90BF1FF3313F0FF0B93
:2018A00039D10024EAE7013C4449454802230022E4B2FFF793FE53463A463146414801F064
:2018C0009BFB41490A2300224846FFF787FEC0B20028E0D03D49CDF800A03B46324604A8B6
:2018E00001F04CFC3A490F23002204A8FFF776FEC0B20028CFD000F035FA039B4FF47A719E
:20190000C01A90FBF1F1334801F076FB012528462BB0BDE8F08F30480A2322464146FFF786
:201920005DFEC0B20028BCD04FF47A7000F020FA22462A480A234146FFF750FEC0B2022485
:2019400020BBAEE7264927480A230022FFF746FEC0B2002892D0DFF8B090ACE7224801F0AF
:201960004BFB224922480A230022FFF737FEC0B2002883D01A491F480A230022FFF72EFEAA
:20198000C0B200283FF47AAF4FF0030B1A4801F033FB4FF014091949194804230022FFF725
:2019A0001DFEC0B20028CDD109F1FF3919F0FF09F1D163E7B4490008CA490008A84A00086B
:2019C000B64A00080D4A00083C4A00085B4A00087F4A00088E4A0008C54A0008D14A00087A
:2019E000CF490008DD4A0008F84A00080B4B0008114B0008D2490008E2490008F5490008F0
:201A0000014A0008C54900084B4A000837B53B4B5B6E052B044662D8FFF7EAFCFEF788FD7B
:201A20000546FEF7DFFDA84246D0FEF7D5FD0190FEF7D8FD2A4603460199314801F0DCFAD5
:201A400000253048214601F0D7FA002D49D0FEF7CFFD0546FEF7D0FD0190FEF7D1FD0199BE
:201A600002462846FFF7EAFE00283AD034B32648FFF7C2FD002834D0FFF79AFC1F4B04B3BD
:201A800009229A66DA6E22F008021C4CDA66002363661E4B23661E4801F034FBE36E1D4AF3
:201AA0001D4843F04003E3661C4B40F24311DA601B4B1C4A00F0BCFE0125C2E7FEF7A4FD00
:201AC000D6E70A229A66DA6E22F00802DA66DA6E22F01002D9E7DA6E42F00802DA6603B0D6
:201AE00030BDFFF765FC054B002CF4D1DA6E42F01002DA665A6E01325A66F0E7002800409B
:201B00001C4B00084F4B0008624B000874B328A6754B00080400FA058F4B000800ED00E090
:201B2000F2480008994B000810B5094A094C1368013303F07F0321688B42FCD00649136002
:201B4000C854064A136843F08003136010BD00BFB4080020B8080020340800200048004049
:201B60000B4B0C4A1968136899420AD01368013303F07F0313601368074AD25C074B1A8586
:201B80007047064A136823F080031360704700BFB4080020B80800203408002000480040A4
:201BA000024B1A68024B1A60704700BF300800202C080020054A1368013303F07F03136087
:201BC000034B998C1368034AD15470472C08002000480040AC070020044A1368013303F04F
:201BE0007F0313601368024AD05C704730080020AC070020FEE7FEE7FEE7FEE7FEE77047EB
:201C000070477047064A13681BB1013B136000F09DB84FF47A731360024B01221A70F6E751
:201C20000C0000209003002010B5104CE369580601D5FFF795FFE369990601D5FFF7BAFF2A
:201C4000E269236852060FD55B060DD54FF0402202F5006353E8003F23F0400302F500600D
:201C600040E800310029F3D110BD00BF0048004010B50D4CE369580601D5FEF7E5FCE3694A
:201C8000990601D5FEF70AFDE269236852060AD55B0608D5044A52E8003F23F0400342E841
:201CA00000310029F7D110BD005000407047000010B50A4B4FF0FF3200249A63DA639C6307
:201CC000DC631A641C649A629C62DA62DC621A631C63FFF7EBFF204610BD00BF0010024033
:201CE00038B50F4B0546187808B9012038BD0D4A4FF47A73B3FBF0F31068B0FBF3F000F0DD
:201D000083FD04460028F0D10F2DEED8024629464FF0FF3000F046FD034B20461D60E5E7B9
:201D200010000020000000201400002010B5032000F026FD0020FFF7D3FF044618B9FFF72B
:201D4000CDF9204610BD0124FBE70000034A044B11681B780B441360704700BFBC080020BF
:201D600010000020014B1868704700BFBC08002038B50446FFF7F6FF631C1CBF054B1B78AE
:201D8000054618BFE418FFF7EDFF431BA342FAD338BD00BF1000002037B51E4DAB6DDA0006
:201DA000044618D500F092FCB0F5007F23D1802C29D9A02C8CBF02200120174A136823F05F
:201DC000070303431360136803F00703181A18BF012003B030BDAB6D43F08053AB65AB6DB8
:201DE00003F080530193019B00F070FCAB6D23F08053AB65D8E7802C07D808D0A4F1700359
:201E000058425841D9E70020D7E70320D5E70220D3E700BF0010024000200240224B9A6854
:201E2000D96812F00C0205D00C2A15D101F00301012918D119681D48090755BFD3F89410DF
:201E40001968C1F30321C1F3031150F821004AB30C2A09D000207047042A22D0082A144867
:201E600018BF002070470020DA6802F00302022A15D00F49032A08BF0846D968DA68C2F378
:201E800006224243D868C0F34160C1F30211013001314000B2FBF1F2B2FBF0F07047054876
:201EA000EBE70448704700BF00100240A446000800127A000024F4002DE9F743054618B93A
:201EC000012003B0BDE8F083924C0368A668E768D80606F00C0607F003073DD51EB10C2E6E
:201EE00068D1012F66D12368990702D5AB69002BE6D02368286A1A0756BFD4F894302368DD
:201F00001B0903F0F00398423BD9FFF745FF0028D6D1236843F00803236023682A6A23F042
:201F2000F003134323606368EA6923F47F4343EA02236360FFF772FFA368774AC3F30313CA
:201F4000D35C03F01F03D840744B1860744B1868FFF7C6FE0028B4D12B68D90761D42B680D
:201F60009A0700F19F802B68190700F1DB802B685A0700F10181AB6A002B40F068810020D1
:201F80009FE7236843F00803236023682A6A23F0F003134323606368EA6923F47F4343EA4D
:201FA00002236360002EC5D1286AFFF7F5FE0028C0D085E7AB691BB3236843F001032360AF
:201FC000FFF7D0FE804623689B0711D5236843F00803236023682A6A23F0F003134323601A
:201FE0006368EA6923F47F4343EA02236360B3E7FFF7B8FEA0EB08000228E4D9032060E7AB
:20200000236823F001032360FFF7ACFE804623689807A1D5FFF7A6FEA0EB08000228F6D96F
:20202000ECE7082E03D00C2E08D1032F06D123689B0394D56B68002B91D141E76B68B3F513
:20204000803F12D1236843F4803323606B68DBB1FFF788FE80462368980380D4FFF782FE55
:20206000A0EB08006428F6D9C8E7B3F5A02F236803D143F480232360E4E723F48033236078
:20208000236823F48023E0E7FFF76CFE8046236899037FF564AFFFF765FEA0EB08006428E8
:2020A000F5D9ABE7042E03D00C2E10D1022F0ED123685A0503D5EB68002B3FF401AF6368A2
:2020C0002A6923F0F85343EA026363604BE7EB687BB1236843F480732360FFF743FE07464D
:2020E00023685B05EBD4FFF73DFEC01B0228F7D984E7236823F480732360FFF733FE074639
:20210000236858057FF52FAFFFF72CFEC01B0228F6D973E7001002409446000800000020E3
:20212000140000206B699BB1D4F8943043F00103C4F89430FFF716FE0746D4F894309B077B
:202140003FF515AFFFF70EFEC01B0228F5D955E7D4F8943023F00103C4F89430FFF702FE59
:202160000746D4F8943098077FF501AFFFF7FAFDC01B0228F5D941E7A36DD9002CD4A36DDE
:2021800043F08053A365A36D03F080530193019B4FF00108884F3B68DA0520D5AB68012B56
:2021A0002ED1D4F8903043F00103C4F89030AB68002B3DD0FFF7D6FD41F288390746D4F8C0
:2021C000903098072ED5B8F1000F3FF4D4AEA36D23F08053A365CEE64FF00008DAE73B68D3
:2021E00043F480733B60FFF7BDFD81463B68DB05D4D4FFF7B7FDA0EB09000228F6D9FDE65E
:20220000052BD4F8903004D143F00403C4F89030C7E723F00103C4F89030D4F8903023F097
:202220000403C2E7FFF79EFDC01B4845C7D9E5E6FFF798FD41F288390746D4F89030990792
:20224000C1D5FFF78FFDC01B4845F6D9D6E6022B40F08F80E368EA6A03F00301914224D1A9
:20226000296B03F070020139B2EB011F1DD1696B03F4FE42B2EB012F17D1AA6B073A03F473
:20228000003118BF012291420FD1EA6B520803F4C001013AB1EB425F07D12A6C520803F0C6
:2022A000C063013AB3EB426F4AD00C2E3FF408AE23685A013FF504AE2368DB003FF500AE20
:2022C000236823F080732360FFF74CFD064623689F012FD4E268394B1340EA6A13436A6B91
:2022E00043EA02232A6B013A43EA0213AA6B120943EA4243EA6B5208013A43EA42532A6C56
:202300005208013A43EA4263E360236843F080732360E36843F08073E360FFF723FD0546CA
:20232000236898013FF52BAEFFF71CFD401B0228F6D963E6FFF716FD801B0228C7D95DE60F
:20234000236899013FF51BAE236843F080732360E36843F08073E360FFF704FD05462368A6
:202360009A013FF50CAEFFF7FDFC401B0228F6D944E60C2E3FF4A4AD236823F08073236095
:20238000236813F0205F02BFE36823F00303E360E36823F0887323F48033E360FFF7E2FC8E
:2023A000054623689B017FF5EAADFFF7DBFC401B0228F6D922E600BF007000408C809DF966
:2023C0002DE9F0410D46044610B90120BDE8F081414A136803F007038B422CD32368D907DF
:2023E00034D423689A075DD43B4A136803F00703AB425FD82368394D13F0040F65D123686F
:202400001B0706D5AB68226923F4605343EAC203AB60FFF703FDAB68314AC3F30313D35CDB
:2024200003F01F03D8402F4B18602F4BBDE8F0411868FFF755BC136823F007030B4313604D
:20244000136803F007038B42BFD1C7E76268234E032A33681AD113F0007FB6D0B36823F0D5
:2024600003031343B360FFF77DFC41F288380746B368626803F00C03B3EB820FB1D0FFF7B1
:2024800071FCC01B4045F3D903209FE7022A02D113F4003FE1E712B913F0020FDDE713F443
:2024A000806FDAE70D4AA168936823F0F0030B43936099E7136823F007032B431360136856
:2024C00003F00703AB4280D194E7AB68E26823F4E0631343AB6092E7002002400010024001
:2024E0009446000800000020140000202DE9F74FDFF8C0C16D4CDFF8C081DFF8C0E1002386
:202500000A6832FA03F502D103B0BDE8F08F4FF0010909FA03F919EA020200F091804E6875
:2025200006F003065F000325013EBD40012E6FEA050511D8866806EA050ACE68BE4046EA0D
:202540000A068660466826EA090A4E68C6F300169E4046EA0A0646604E6806F0030ABAF107
:20256000030F6FD0C66806EA05098E68BE4046EA0906C6604E6806F00306022E72D00668F0
:2025800035404E6806F00306BE40354305604D6815F4403F54D0DCF8605045F00105CCF852
:2025A0006050DCF8605023F0030606F1804605F0010506F58036019503F00309019DB56812
:2025C0004FEA89090F2707FA09F7B0F1904F25EA07075FD0364DA8425ED005F58065A842C9
:2025E0005CD005F58065A8425AD005F58065A84258D0404558D070450CBF0625072505FA48
:2026000009F53D43B5604D68A768D643ED0254BF37401743A7604D68E768AD0254BF374033
:202620001743E7604D686768AD0354BF3740174367604D682768ED0354BF3740174327607B
:2026400001335DE7D0F82CA0C6F3C0062AEA09099E4046EA0906C6624E6806F00306032E9E
:202660008DD07FE74FEAD30A00EB8A0A03F0070BDAF820604FEA8B0B4FF00F0909FA0BF97E
:2026800026EA09090E6906FA0BF646EA0906CAF8206074E70025B2E70125B0E70225AEE78D
:2026A0000325ACE70425AAE70525A8E700040140000400480010024000140048001800484D
:2026C0000AB181617047816270470000024B186800F4C060704700BF00700040174A136829
:2026E000B0F5007F03F4C0631DD1B3F5007F01D100207047136823F4C06343F4007313600C
:202700000F4B1B6832214B430E49B3FBF1F301335169490500D523B953695B05E8D5032029
:202720007047013BF4E7B3F5806F1FBF136823F4C06343F480631360DAE700BF00700040E4
:202740000000002040420F000B4A136823F0070343F002031360094B1A69012842F00402F8
:202760001A6105D130BF1A6922F004021A61704740BF20BF20BFF6E70070004000ED00E035
:202780000749CA6822F4E0620302120403F4E063120C134343F0BF6343F40033CB607047F5
:2027A00000ED00E030B5164BDC68C4F30224C4F10705231D042D28BF0425062B4FF0FF3301
:2027C0008CBF033C002403FA05F521EA0501A34022EA0302A140002841EA0203ACBF00F1BA
:2027E0006040084A4FEA0313B8BF00F00F00DBB2AABF00F56140135480F8003330BD00BFD8
:2028000000ED00E014ED00E00138B0F1807F0BD24FF0E023054A5861F02182F8231000202C
:20282000072298611A6170470120704700ED00E01FB514461A46094B1B680546D8684CB1B2
:20284000074B0091CDE9013406492B4600F014F800F00EFE044B1C46F3E700BF1800002070
:20286000A24B0008AF4B0008F74A0008014B1868704700BF180000200EB403B5014603AB2F
:20288000054853F8042B0068019300F0F1F802B05DF804EB03B070471800002070B50D4D85
:2028A0000D4C641BA4100026A64209D10B4D0C4CFDF71CFD641BA4100026A64205D170BDA3
:2028C00055F8043B98470136EEE755F8043B98470136F2E7944D0008944D0008944D00084B
:2028E000944D000802440346934200D1704703F8011BF9E770B50E4E0C463168054611B98B
:20290000FDF7D4FC306021462846FDF7CFFC431C0AD0C41C24F00304A04207D0211A284639
:20292000FDF7C4FC013001D14FF0FF34204670BDC40800202DE9F041CD1C25F00305083565
:202940000C2D38BF0C25002D074601DBA94205D90C233B6000263046BDE8F0812E4E00F00F
:20296000D7FF33681C4634BB29463846FFF7C2FF431C04464DD134682646002E40D1236858
:202980003146384604EB0308FDF790FC80453AD1216803356D1A25F0030508350C2D38BF26
:2029A0000C2529463846FFF7A5FF01302BD023682B4423600EE02268521B1ED40B2A16D9BB
:2029C0006119A342256018BF5960636808BF316062514B60384604F10B0600F09FFF26F0DA
:2029E0000706231DF21AB6D09B1BA350B3E76268A3420CBF32605A60ECE723466468B2E74E
:202A000034467668B9E70C233B60384600F086FFA1E72560DEE700BFC00800209368013B51
:202A2000002B10B4936008DA9469A34201DB0A2903D15DF8044B00F05BBC1368581C106003
:202A4000197008465DF8044B7047F8B506460F461446D518AC4201D1002007E014F8011BC0
:202A60003A463046FFF7DAFF431CF3D1F8BD00002DE9F04F0D469DB014469846064618B177
:202A800083690BB900F016FE894B9D421BD175686B6ED90705D4AB899A0502D4A86D00F0C6
:202AA000A7FEAB891B0701D52B69EBB92946304600F070FCC0B16B6EDC070ED54FF0FF304E
:202AC0001DB0BDE8F08F7B4B9D4201D1B568DFE7794B9D4208BFF568DAE7AB899805EDD491
:202AE000A86D00F086FEE9E70023099320238DF82930CDF80C803023DFF8C0818DF82A3002
:202B00004FF0010923469A4613F8012B0AB1252AF9D1BAEB040B0BD05B462246294630469B
:202B2000FFF793FF013000F0AA80099A5A4409929AF80030002B00F0A28000234FF0FF3254
:202B4000CDE905230AF1010A049307938DF853301A935446052214F8011B5848FDF720FB13
:202B6000049AD8B9D10644BF20238DF85330130744BF2B238DF853309AF800302A2B15D092
:202B8000079A544600204FF00A0C214611F8013B303B092B4ED9B0B1079214E0A0EB08038F
:202BA00009FA03F313430493A246D2E7039B191D1B680391002BBBBF5B4242F00202079391
:202BC0000793B8BF049223782E2B0CD163782A2B35D1039B1A1D1B680392002BB8BF4FF079
:202BE000FF3302340593DFF8E4A0217803225046FDF7D6FA40B14023A0EB0A0003FA00F08C
:202C0000049B03430134049314F8011B2C488DF828100622FDF7C4FA00283FD0294B1BBB4F
:202C2000039B073323F0070308330393099B3B44099367E70CFB02320C460120A5E7002364
:202C40000134059319464FF00A0C204610F8012B303A092A03D9002BC5D00591C3E70CFBD9
:202C6000012104460123F0E703AB00932A46164B04A93046AFF300800746781CD6D16B6E35
:202C8000D90705D4AB899A0502D4A86D00F0B1FDAB895B063FF512AF099811E703AB0093BB
:202CA0002A46094B04A9304600F080F8E4E700BF384C0008584C0008184C0008E44B000860
:202CC000EE4B0008000000004B2A0008EA4B00082DE9F047164699468A680B69DDF8208096
:202CE0009342B8BF1346336091F8432007460C460AB1013333602368990642BF3368023394
:202D00003360256815F0060506D104F1190AE36832689B1AAB4226DC94F84320131E226861
:202D200018BF012392062BD404F1430249463846C04701301ED02368E568326803F0060326
:202D4000042B08BFAD1AA36822690CBF25EAE57500259342C4BF9B1AED1800261A34B5424A
:202D60001AD1002008E00123524649463846C047013003D14FF0FF30BDE8F0870135C6E71E
:202D8000E1185A1C302081F84300224494F8451082F843100233C7E7012322464946384628
:202DA000C0470130E6D00136D9E700002DE9FF470F7E0C9D782F914680460C469A4601F134
:202DC000430207D8622F0AD8002F00F0D880582F00F0A38004F1420584F842703AE0A7F12F
:202DE0006303152BF6D801A151F823F0452E0008592E0008D52D0008D52D0008D52D000839
:202E0000D52D0008592E0008D52D0008D52D0008D52D0008D52D0008652F0008892E000896
:202E2000472F0008D52D0008D52D0008872F0008D52D0008892E0008D52D0008D52D000865
:202E40004F2F00082B681A1D1B682A6004F1420584F842300123A3E020682968060601F12D
:202E600004030AD50E682B60002E03DA2D23764284F843305E480A2319E00E682B6010F09C
:202E8000400F18BF36B2EFE72B682068191D2960010601D51E6802E04606FBD51E885448D1
:202EA0006F2F0CBF08230A23002184F843106568A560002DA2BF216821F0040121600EB91A
:202EC000002D4DD01546B6FBF3F103FB1167C75D05F8017D3746BB420E46F4D9082B0BD1F9
:202EE0002368DE0708D5236961689942DEBF302305F8013C05F1FF35521B2261CDF800A0AC
:202F00004B4603AA21464046FFF7E2FE01304CD14FF0FF3004B0BDE8F087354881F8457079
:202F20002968236851F8046B29601D0614D5DF0744BF43F0200323601EB9236823F02003CE
:202F400023601023B0E7236843F0200323607823284884F84530E3E7590648BFB6B2E6E75F
:202F60001546BBE72B6826686169181D286035061B6801D5196002E07006FBD519800023BB
:202F800023611546BAE72B681A1D2A601D68626800212846FDF704F908B1401B60606368EF
:202FA0002361002384F84330A8E723692A4649464046D0470130ABD023689B0713D4E068BC
:202FC000039B9842B8BF1846A4E70123324649464046D04701309BD00135E36803995B1A23
:202FE000AB42F2DCEBE7002504F11906F5E700BFF54B0008064C00080FB40A4B13B51C686A
:2030000024B1A36913B9204600F054FB05AB049AA16801932046FFF72BFD02B0BDE8104048
:2030200004B070471800002070B50E46054618B183690BB900F03EFBAB69AC6813B9284625
:2030400000F038FB2C4B9C4220D16C68636EDB0705D4A389980502D4A06D00F0C9FBA3891B
:2030600019071DD52369DBB1013EA36816F8011F013BA36039BB002B38DA22460A2128463D
:2030800000F036F9013011D00A2511E01B4B9C4201D1AC68DAE71A4B9C4208BFEC68D5E7DA
:2030A0002146284600F076F90028DDD04FF0FF35636EDA0705D4A3899B0502D4A06D00F06A
:2030C00098FB284670BD002B04DAA2699A4206DC0A2904D023685A1C22601970C5E72246C9
:2030E000284600F005F90130BFD1DFE723680A255A1C22601D70DBE7384C0008584C0008B4
:20310000184C0008024B01461868FFF78DBF00BF180000200CB430B5174B0C1E1D689DB0F3
:2031200008DA8B232B604FF0FF301DB0BDE8304002B070474FF40273ADF8143014BF04F152
:20314000FF332346049307934FF6FF7302900690ADF81630209A21AB02A92846019300F0B6
:20316000B9FC431CBCBF8B232B60002CDDD0029B00221A70D9E700BF180000200EB400B537
:203180009CB01DAB029006906FF00041094807910491094953F8042B05910068019302A9CC
:2031A00000F098FC029B00221A701CB05DF804EB03B07047180000200802FFFF0EB410B501
:2031C0009FB021AC4FF4017154F8042B0192ADF81C1004900890FCF7DBFF0C4B05900990C1
:2031E0000D930B48019A006803940023119316934FF6FF73ADF81E3004A9234600F0C4FD61
:203200001FB0BDE8104003B0704700BF373200081800002010B50C46B1F90E10FDF769F8E4
:203220000028ABBF636DA3891B1823F48053ACBF6365A38110BD002070472DE9F0411F463C
:203240008B89DB0505460C46164605D5B1F90E1002230022FDF76BF8A389B4F90E1023F433
:203260008053A38132463B462846BDE8F041FDF74CB810B50C46B1F90E10FDF758F8431CA0
:20328000A38915BF606523F4805343F48053A38118BFA38110BDB1F90E10FDF743B810B50D
:2032A0000139034632B111F8014F03F8014B013A002CF7D11A440021934200D110BD03F8EC
:2032C000011BF9E70A7870B56AB970BD9A4209D10C46054614F8013F002BF6D015F8016FEE
:2032E0009E42F7D001300378002BEFD11846ECE7F8B50E461446054618B183690BB900F050
:20330000D9F9214B9C422BD16C68A369A360A3891A072FD523696BB323692068C01A6369FD
:20332000F6B28342374604DC2146284600F02EF930BBA368013BA36023685A1C22601E7091
:2033400063690130834204D0A389DB0706D50A2E04D12146284600F019F988B93846F8BD96
:203360000A4B9C4201D1AC68CFE7094B9C4208BFEC68CAE72146284600F00CF80028CBD0F4
:203380004FF0FF37EAE700BF384C0008584C0008184C0008324B70B51D6806460C4625B1E9
:2033A000AB6913B9284600F085F92E4B9C420FD16C68A389B4F90C2019072CD4DD0611D459
:2033C0000923336042F04003A3814FF0FF303EE0254B9C4201D1AC68EBE7244B9C4208BFEF
:2033E000EC68E6E7580712D5616B41B104F14403994202D0304600F097FA00236363A389B3
:2034000023F02403A3810023636023692360A38943F00803A38123694BB9A38903F4207385
:20342000B3F5007F03D02146304600F009FAA089B4F90C2010F001030AD00023A3606369F0
:203440005B42A361236943B910F08000BAD170BD810758BF6369A360F4E70020F7E700BF05
:2034600018000020384C0008584C0008184C000808B5062000F0B2FF0120FCF739FF0000A0
:203480008A892DE9F041054610070C4658D44B68002B05DC0B6C002B02DC0020BDE8F0817D
:2034A000E66A002EF9D0002312F480522F682B6032D0606DA3895A0705D56368C01A636BFF
:2034C0000BB1236CC01A00230246E66A216A2846B047431CA38906D129681D292CD82A4A6B
:2034E000CA40D60728D500226260D9042269226004D5421C01D12B6803B96065616B2F60A2
:203500000029CAD004F14403994202D0284600F00BFA00206063C1E7216A01232846B047FD
:20352000411CC7D12B68002BC4D01D2B01D0162B01D12F60B1E7A38943F04003A381ADE797
:203540000F69002FA9D093070E6808BF4B690F6018BF0023A6EB07088B60B8F1000F9CDD9B
:20356000216AA66A43463A462846B047002806DCA38943F04003A3814FF0FF308EE7074444
:20358000A8EB0008E9E700BF0100402038B50B6905460C4613B90025284638BD18B1836999
:2035A0000BB900F087F8144B9C421BD16C68B4F90C30002BEFD0626ED00704D4990502D415
:2035C000A06D00F015F928462146FFF759FF636EDA070546E0D4A3899B05DDD4A06D00F092
:2035E00008F9D9E7054B9C4201D1AC68DFE7044B9C4208BFEC68DAE7384C0008584C0008EF
:20360000184C0008002310B50446C0E90033C0E90433836081814366C28183611946082212
:203620005C30FFF75FF9054B6362054BA362054BE362054B2462236310BD00BF153200087A
:203640003B3200087332000897320008014900F0AFB800BF8D35000870B568224D1E55439B
:203660000E4605F17401FFF765F9044640B10021C0E900160C30A06005F16802FFF732F95F
:20368000204670BD014800F0B3B800BFC9080020014800F0AEB800BFC9080020014800F0BB
:2036A000A7B800BFCA080020014800F0A2B800BFCA08002010B50446FFF7F0FFA3691BB1EA
:2036C000BDE81040FFF7F0BFC4E912332365134B134A1B68A262A34204BF0123A36120465E
:2036E00000F020F86060204600F01CF8A060204600F018F80022E06004216068FFF782FF6C
:20370000A06801220921FFF77DFFE06802221221FFF778FF0123A361D2E700BFE04B000803
:203720004D360008F8B50746FFF7ACFF1E4B1E68B36913B93046FFF7BDFF4836D6E90134F2
:20374000013B03D533680BB33668F7E7B4F90C50D5B9164BE36004F15800656600F047F8FE
:20376000FFF796FFC4E90155C4E904552560A5610822294604F15C00FFF7B4F8C4E90D558F
:20378000C4E912552046F8BD6834D9E704213846FFF762FF044630600028D5D1FFF778FF8F
:2037A0000C233B60EEE700BFE04B00080100FFFF2DE9F8430646884600F148040027D4E9ED
:2037C0000195B9F1010905D52468002CF7D13846BDE8F883AB89012B07D9B5F90E30013347
:2037E00003D029463046C04707436835E9E770477047704770B50E46B1F90E10002996B07E
:2038000014461D4608DAB6F90C3000222A601A0610D44FF480630EE06A46FCF78DFD002805
:20382000F1DB019A02F47042A2F500535A425A412A60EEE740230020236016B070BD000000
:203840008B8973B59D0706460C4607D504F14703236023610123636102B070BD01AB6A46A5
:20386000FFF7C8FF009905463046FFF763F848B9B4F90C309A05EFD423F0030343F0020343
:20388000A381E3E70D4BB362A389206043F08003A381009B6361019B20615BB1B4F90E10F4
:2038A0003046FCF74EFD28B1A38923F0030343F00103A381A0890543A581CDE74D36000805
:2038C0000A44914200F1FF3300D1704710B511F8014B03F8014F9142F9D110BD884210B5BE
:2038E00001EB020402D98442234607D8431EA14208D011F8012B03F8012FF8E70244014605
:203900008A4200D110BD13F8014D02F8014DF7E70148FFF76DBF00BFC80800200148FFF765
:2039200068BF00BFC808002037B5002944D051F8043C0190002BA1F10404B8BFE418FFF740
:20394000E7FF1E4A0198136833B96360146003B0BDE83040FFF7E2BFA34208D925686119B6
:203960008B4201BF19685B6849192160EDE71A465B680BB1A342FAD911685518A5420BD17F
:20398000246821445418A3421160E0D11C685B68536021441160DAE702D90C230360D6E708
:2039A000256861198B4204BF19685B68636004BF491921605460CAE703B030BDC0080020D6
:2039C0002DE9F041804614460E4621B9BDE8F0411146FEF7AFBF2AB9FFF7A6FF254628466B
:2039E000BDE8F08100F048FE8442074602D8B4EB500F12D821464046FEF79CFF05460028B6
:203A0000EDD0BC422246314628BF3A46FFF758FF31464046FFF788FFE1E73546DFE72DE9BF
:203A2000F0478E689E4282460C4690461F4638D88A8912F4906F32D025680969A5EB010961
:203A4000656905EB450505EBD57501334B446D109D4238BF1D46530531D52946FEF76AFF80
:203A6000064650B90C23CAF80030A38943F04003A3814FF0FF30BDE8F08721694A46FFF770
:203A80001FFFA38923F4906343F08003A381266165614E44A5EB09052660A5603E46BE426C
:203AA00000D93E46206832464146FFF717FFA3689B1BA3602368334423600020DBE72A467B
:203AC000FFF77EFF06460028E1D121695046FFF72BFFC7E72DE9F04F98468B891B069DB0AA
:203AE00007460D4614460ED50B6963B94021FEF721FF2860286120B90C233B604FF0FF30C1
:203B0000D1E040236B610023099320238DF82930CDF80C803023DFF8A8818DF82A304FF023
:203B2000010923469A4613F8012B0AB1252AF9D1BAEB040B0BD05B46224629463846FFF7AC
:203B40006EFF013000F0AA80099A5A4409929AF80030002B00F0A28000234FF0FF32CDE989
:203B600005230AF1010A049307938DF853301A935446052214F8011B5148FCF711FB049A12
:203B8000D8B9D00644BF20238DF85330110744BF2B238DF853309AF800302A2B15D0079A62
:203BA000544600204FF00A0C214611F8013B303B092B4ED9B0B1079214E0A0EB080309FAFD
:203BC00003F313430493A246D2E7039B191D1B680391002BBBBF5B4242F0020207930793CA
:203BE000B8BF049223782E2B0CD163782A2B35D1039B1A1D1B680392002BB8BF4FF0FF33B1
:203C000002340593DFF8C8A0217803225046FCF7C7FA40B14023A0EB0A0003FA00F0049B1A
:203C200003430134049314F8011B26488DF828100622FCF7B5FA002838D0234B1BBB039B43
:203C4000073323F0070308330393099B3344099367E70CFB02320C460120A5E700230134A5
:203C6000059319464FF00A0C204610F8012B303A092A03D9002BC5D00591C3E70CFB0121BC
:203C800004460123F0E703AB00932A460F4B04A93846AFF30080421C0646D6D1AB895B06A1
:203CA0003FF52CAF09981DB0BDE8F08F03AB00932A46064B04A93846FFF778F8EBE700BF3F
:203CC000E44B0008EE4B0008000000001F3A0008EA4B000838B54B1C144603D14FF0FF35D9
:203CE000284638BD938923F020039381636B5268CDB28BB1A36B934208DD23685A1E22606B
:203D000003F8015C636801336360E9E7214600F079FC0028F1D0E1E72169236851B199424A
:203D200008D213F8011CA94204D1013B013223606260D5E7C4E90F3204F14403636303233B
:203D4000A363234603F8465F23600123DCE710B50C46496B69B104F14403994201D0FFF727
:203D6000E3FD236C63600020606313B1E36B236010BD2369236000236360A38943F0200355
:203D8000A3814FF0FF30F3E72DE9F0470C46ADF5227D0021CDE94411A649A0910DF1040881
:203DA000A549A64FDFF89892CDF818810646A19100931378002B00F05A81D95D11F00801EF
:203DC00002F1010519D06368002B0FDD23681A78BA5C120701D42A46EBE7459A01324592D3
:203DE00062680133013A62602360ECE7A19B2146304698470028E9D0EDE7252B12D09A46B3
:203E00006368002B40F3918022681378534540F02E816368013B6360459B01320133226049
:203E20004593D8E74191439153782A2B02BF1023951C41930A22AA461AF8011BA1F130039D
:203E4000092B1DD97E480322FCF7AAF940B10123A0EB090003FA00F0419B1843419055467E
:203E600015F8013B782B06D8572B10D8252BC6D056D8002B64D0032347930A23429371E048
:203E8000439B02FB0311303943915546D3E7A3F15802202AEFD801A151F822F04F3F00080F
:203EA000773E0008773E0008AD3F0008773E0008773E0008773E0008773E0008773E0008E3
:203EC000773E0008773E0008C33F0008993F0008273F0008273F0008273F0008773E000877
:203EE0009D3F0008773E0008773E0008773E0008773E0008D33F0008A53F0008473F000856
:203F0000773E0008773E0008CF3F0008773E0008993F0008773E0008773E00084F3F000864
:203F2000453B022BA7D805231BE0A19B21463046984700283FF468AF4498002840F08D8087
:203F40004FF0FF308FE0419A42F020024192419A42F40072419210226F2B429234BF032373
:203F6000042347936368002B42DD419B590604D423681A78BA5C120741D4479B022B50DC7C
:203F80006B46224641A9304600F076F801286ED002287FF420AFCFE70A22DDE700234293D9
:203FA0000323DEE7082342930423DAE72946404600F0B4F9419B43F0400341930546012307
:203FC000CFE7419B43F0400341930023C9E70223C7E74198C3063FF5FEAE009B459A191D2D
:203FE00000911B6810F0010F14BF1A801A60F2E6A19B2146304698470028B6D09CE7459AD6
:20400000013245926268013A002A626002DD01332360ADE7A19B2146304698470028A7D0E4
:204020008AE7042B0EDC6B46224641A9304600F07DF8ABE7D53C00084F3D0008944C0008F1
:20404000EA4B00080B4B002B3FF4C5AE6B46224641A93046AFF3008098E7A38913F0400F64
:2040600018BF4FF0FF300DF5227DBDE8F0874498F9E700BF000000002DE9F84315468A6825
:2040800080460C4632B98A69002A0CBF01224FF0FF328A602268DFF89090D1065FBF1A68C0
:2040A000111D196016680027A06988B1012807D12A6811786269525C52B9002F31D022E0A0
:2040C000022820D12B681B7813F809301B071AD42368DA065EBF2B681B7806F8013B2A68D1
:2040E0006B6801322A60A268013B013A6B600137A26042B1002BD7DCD4F880312946404667
:2041000098470028D0D0236813F0100305D1E2680132E260A26902B1337023693B442361D2
:204120000020BDE8F88300BF944C00082DE9F04F9846764B0C468246164693E8070087B075
:2041400003AB83E80700724BA169724A032918BF1A46A36801925A1EB2F5AE7F88BF6FF4C5
:20416000AE75274682BF03EB050940F25D13A36057F81C3B43F4506398BF4FF0000923601B
:204180003D464FF0000B316803AB097853F82B000222FCF705F828B3BBF1010F59D1626875
:2041A0002AB92268082342F4007263602260226822F4A0622260A268511EA16092B13268FF
:2041C000511C3160127805F8012B7268013A002A726007DCD4F880213146504690470028C1
:2041E00040F085800BF1010BBBF1030FCBD163680BB90A236360636847496069C91A00F0B2
:204200008DF84FF0000BA3682268002B3DD03168606991F800C010F80C00002835D0BCF169
:20422000300F24D1100522D50BF1010BB9F1000F03D0013309F1FF39A3607368013B002BFF
:2042400073601BDD336801333360A368013BA360D9E7BBF1020FAED1226802F4C061B1F5A4
:20426000007FBFD11023636042F48072A2E722F4106222600B7805F8013BDEE7D4F8803180
:204280003146504698470028DFD02368DB050DD5BD4209D915F8011CD4F87C31324650467C
:2042A000984705F1FF394D46BD422DD0226812F0100213D12A706368019E39465046B047D0
:2042C0002168D8F8003011F0200F13D01A1DC8F800201B681860E3680133E360ED1BAB4477
:2042E00025695D442561002007B0BDE8F08F4FF0000BCAE71A1DC8F800201B6811F0010F68
:2043000014BF18801860E6E70120EDE7884600080146000819450008914C000870B50B78E0
:2043200004465E2B0BBF4B78481C881C002208BF0122611E04F1FF0501F8012FA942FBD1B1
:204340000BB9013870BD82F00102E2540546284610F8011B2D2906D05D29F3D009B9284606
:20436000F0E70B46F1E76E785D2EFAD0B342F8DC0235194601318E426254FBDCF11A0139CF
:20438000581CB342A8BF00214318E0E71F2938B504460D4604D9162303604FF0FF3038BD5C
:2043A000426C12B152F821304BB9204600F030F82A4601462046BDE8384000F017B8012B4A
:2043C0000AD0591C03D1162303600120E7E7002442F82540284698470020E0E7024B0146A4
:2043E0001868FFF7D3BF00BF1800002038B5074D00230446084611462B60FBF7AAFF431CE6
:2044000002D12B6803B1236038BD00BFCC080020FBF74ABF012B2DE9F04701D0242B06D9E4
:20442000FEF724FA162303600020BDE8F087DFF8E4C00D462E4615F8014B14F80C7017F067
:204440000807F7D12D2C32D12C780127B51C002B5BD0102B09D1302C07D12C7804F0DF0472
:20446000582C4DD16C781023023507F1004808F1FF384FF0000CB8FBF3F9664603FB198AA5
:20448000A4F1300EBEF1090F16D87446A34224DDBCF1000F1EDBB1451CD301D1A24519DBAD
:2044A00006FB03464FF0010C15F8014BE8E72B2C04BF2C78B51CCAE7A4F1410EBEF1190F43
:2044C00001D8373CE2E7A4F1610EBEF1190F04D8573CDBE74FF0FF3CE6E7BCF1000F05DAD9
:2044E00022230360464642B930469EE707B17642002AF9D0BCF1000F00D0691E1160F3E7D1
:204500003024002BB1D10823AFE7302CA5D00A23ABE700BF944C0008FFF77CBF2DE9F04328
:20452000364F86460D46284615F8014BE65D16F00806F8D12D2C2FD12C780126851C002B00
:2045400057D0102B09D1302C07D1287800F0DF00582849D16C78102302354FF0FF380027F7
:20456000B8FBF3F803FB08F96FEA09093846A4F1300CBCF1090F14D86446A34222DD002F76
:204580001DDB80451BD301D1A14518DB00FB0340012715F8014BEAE72B2C04BF2C78851CD6
:2045A000CDE7A4F1410CBCF1190F01D8373CE4E7A4F1610CBCF1190F04D8573CDDE74FF030
:2045C000FF37E6E7002F07DA2223CEF800304FF0FF3032B9BDE8F08306B14042002AF9D0F0
:2045E00007B1691E1160F5E73024002BB5D10823B3E7302CA9D00A23AFE700BF944C000826
:20460000FFF78CBF2DE9F0410C46496B04F1440399421DD14FF48061FEF78CF918B94FF059
:20462000FF30BDE8F0814FF48063A36394F84630606380F8FF3394F8453080F8FE3394F864
:20464000443080F8FD3300F2FD3020600020E8E7A66B77003A46FFF7B3F905460028DED0E5
:2046600000EB0608014632464046FFF729F9C4E90D57C4F80080E9E751F8043C181F002BDC
:20468000BCBF0B58C0187047784C00087B4C00087E4C000800000000000000000102030436
:2046A00006070809A0860100400D0300801A060000350C0040420F0080841E0000093D008B
:2046C00000127A000024F40000366E010048E801006CDC025B424C44525D506F776572200D
:2046E00053746172740D005B424C44525D46572056657273696F6E2042616E6B3120256CA2
:20470000642042616E6B3220256C640D0064657669636500707031334D2D53410064776642
:2047200074702E63656E746572326D2E636F6D0066696C65732F74656C656D617469632EB2
:2047400062696E005B424C44525D4350552042616E6B204353554D204F4B0D005B424C4474
:20476000525D537A4D6173733A20256C580D005B424C44525D4353554D204552524F5220FB
:20478000256C5820256C580D005B424C44525D426F6F74204E6F742052656164790D005BDC
:2047A000424C44525D4279650D005B424C44525D426F6F74436F707920446F6E650D005B32
:2047C000424C44525D426F6F74204E6F742045717569616C0D005B424C44525D42616420E2
:2047E000636F646520696E2042616E6B20310D005B424C44525D42616420636F6465206906
:204800006E2042616E6B20320D005B424C44525D526573657420666F72204654504C6F61C3
:20482000640D005B424C44525D416C6C2042616E6B7320476F6F640D005B424C44525D531E
:204840007461727420436F64652046726F6D2042616E6B20256C640D0A000D5B424C4452FA
:204860005D53746172742056322E35352043757272656E742042616E6B20256C5820436F13
:204880006D6D616E643A20256C580D0A005B424C44525D52657365740D0041542B43465428
:2048A00052414E54583D22433A2F2573222C256C642C3531320D0A002564002B43465452C7
:2048C000414E54583A20444154412C0041542B434654505347455446494C453D22257322A4
:2048E0000D0A002B434654505347455446494C453A20300041542B465341545452493D2230
:20490000433A2F2573220D0A002B465341545452493A00256C640046696C652053697A6568
:204920000909256C640D004368756E6B2053697A6509256C64203E20005265616420494E00
:2049400009256C643E2000506F736974696F6E09256C640D0A005B424C44525D577269740F
:20496000652045525220526553746172742E2E2E0D005B424C44525D526573657420666F79
:20498000722053746172742E2E2E0D004572726F72204E6F256C640D0A005B424C44525D11
:2049A000465450204C6F61642054696D65202564730D0A005B47534D5D312E415420537411
:2049C0006167650D004F4B0D0A0041540D0A004F4B0041542B43495052584745543D310D05
:2049E0000A005B47534D5D332E435245472053746167650D002B43475245473A20302C31F1
:204A00000041542B43475245473F0D0A005B47534D5D342E4C4F47494E2053746167652E5C
:204A20002055524C3A25732C204C6F67696E3A25732C20506173733A25730D002B434654B0
:204A4000505353544152543A20300041542B434654505353544152540D0A0041542B43466D
:204A60005450534C4F47494E3D222573222C32312C222573222C222573222C320D0A002B6E
:204A800043465450534C4F47494E3A2030005B47534D5D436F6E6E656374696F6E207469E7
:204AA0006D65202564730D002B434654505353544F503A20300041542B4346545053535499
:204AC0004F500D0A0041542B4346554E3D300D0A0041542B4346554E3D310D0A0041542B7F
:204AE000434744434F4E543D312C224950222C22494F5432220D0A005B47534D5D322E4356
:204B000050494E2053746167650D0052454144590041542B4350494E3F0D0A000D5B424CE2
:204B200044525D46545020426164204352432053697A6520256420435243426F6F74202544
:204B40006C58204352434D454D20256C580D005B424C44525D4654505F4C6F616420256456
:204B60000D0066696C65732F74656C7265636F762E62696E005B424C44525D52657365743C
:204B800020666F7220466C6173682E2E2E0D005372632F47534D2E63004654505F4C6F61D5
:204BA00064002C2066756E6374696F6E3A2000617373657274696F6E2022257322206661CA
:204BC000696C65643A2066696C6520222573222C206C696E65202564257325730A0000006A
:204BE0001C000020232D302B2000686C4C006566674546470030313233343536373839413C
:204C00004243444546003031323334353637383961626364656600000000000000000000DE
:204C2000000000000000000000000000000000000000000000000000000000000000000074
:204C4000000000000000000000000000000000000000000000000000000000000000000054
:204C60000000000000000000000000000000000000000000000000002B2D003030007858AC
:204C800000412D46612D66383930313233343536375D00002020202020202020202828286A
:204CA00028282020202020202020202020202020202020208810101010101010101010102C
:204CC000101010100404040404040404040410101010101010414141414141010101010171
:204CE0000101010101010101010101010101011010101010104242424242420202020202AF
:204D0000020202020202020202020202020202101010102000000000000000000000000015
:204D2000000000000000000000000000000000000000000000000000000000000000000073
:204D4000000000000000000000000000000000000000000000000000000000000000000053
:204D6000000000000000000000000000000000000000000000000000000000000000000033
:204D8000000000000000000000000000000000000000000000093D00D0180020FFFFFFFFC9
:204DA000E803000001000000100000001C00002000000000384C0008584C0008184C000817
:204DC0000000000000000000000000000000000000000000000000000000000000000000D3
:204DE0000000000000000000000000000000000000000000000000000000000000000000B3
:104E000000000000000000000000000000000000A2
:0C880000BC820100F660FB3D8EA300006E
:208A00000008002095BB000831BB0008EDBA000841BB000851BB000861BB000800000000F7
:208A2000000000000000000000000000CDBA000871BB00080000000081BA000881BB0008EC
:208A40005178010851780108517801085178010851780108517801085D1301085D13010838
:208A60005D1301085D1301085D1301085178010851780108517801085178010835C1000845
:208A8000517801085178010851780108517801085178010851780108517801085D1301089F
:208AA000517801085178010851780108517801085178010851780108517801085178010826
:208AC000517801085178010819180108517801085178010855230108517801085B2301083A
:208AE0005D130108C51B010851780108517801085178010851780108517801085178010828
:208B00005178010851780108AD1F0108517801085178010861230108517801085178010807
:208B20005178010851780108517801085178010851780108517801085178010851780108A5
:208B4000517801085178010851780108000000005178010851780108672301085178010896
:208B6000517801085178010851780108517801085178010851780108000000000000000009
:208B8000517801085178010800210EF0F9BE000070B586B00024E82322460225ADF80E107F
:208BA0008DF814308DF81500204B8DF8134020466FF0FF0109F0A6F8CDE90045204605ABA2
:208BC00001226FF0FF0109F013F9CDE9004520460DF10E0301226FF0FF0109F009F90A24F3
:208BE00001250DF113069DF913209DF81330002A01DA5B0710D54FF47A70FFF7C5FF002341
:208C0000CDE9006501226FF0FF011846013C09F0EFF814F0FF04E6D1002009F0CBF814206E
:208C2000FFF7B2FF9DF8130006B070BD40420F00F0B5002887B00C4606DC3049304809F04F
:208C4000E7FD012007B0F0BD08680FF06BFC432851D820680FF066FCC4B2E92300258DF82C
:208C60000C3004F07F032A4628468DF80D306FF0FF01244B8DF80B5009F044F80223CDE9E4
:208C80000053284603AB01226FF0FF0109F0B0F80A2501260DF10B079DF90B30002B0FDBF6
:208CA0006420FFF771FF0023CDE9007601226FF0FF011846013D09F09BF815F0FF05EBD10C
:208CC0000823019304AB009300231A4618466FF0FF0109F08DF8002009F06CF81420FFF72E
:208CE00053FF049B00939DF80B20059B064821460FF0C4FFA5E74324AFE700BF88A9010897
:208D00009EA9010840420F00A3A90108F0B5012887B00D4606DC3949394809F079FD012050
:208D200007B0F0BD08680FF0FDFB43280ED828680FF0F8FBC4B2A4F13B03052B01D9432CD3
:208D400006D121462F480FF099FFE8E74324F8E768681022002110F0C7FAEA2300258DF817
:208D60000C3004F07F03CDE904012A4628468DF80D306FF0FF01244B8DF80B5008F0C2FF7F
:208D80000223CDE90053284603AB01226FF0FF0109F02EF80823CDE90053284604AB012274
:208DA0006FF0FF0109F024F80A2501260DF10B079DF90B209DF80B30002A01DA5B0710D5FC
:208DC0004FF47A70FFF7E0FE0023CDE9007601226FF0FF011846013D09F00AF815F0FF0521
:208DE000E6D1002008F0E6FF1420FFF7CDFE9DF80B20064821460FF041FF90E788A9010865
:208E00009EA90108DAA9010840420F00F6A90108012838B505460C4615DD0D49606810F07A
:208E2000D5F820B90B480DF083FE002038BD616808480DF08FFE03460028F6D004F10801CE
:208E4000A81E9847F1E7044810F004F8EDE700BF1CAA0108DCAC010821AA0108002210B59F
:208E60001046094B6FF0FF0108F04CFF0023E0226FF0FF01184609F0E6FB0446002008F088
:208E800099FF204610BD00BF40420F0010B5014604461B480FF0F2FEE1091A480FF0EEFED8
:208EA000194B1A491A4814F0400F08BF19460FF0E5FEC4F3C203013BDBB2062B96BF154A04
:208EC000154952F8231015480FF0D8FE144B1549154814F0040F04F0030404F1FF3408BF6A
:208EE0001946E4B20FF0CAFE022C96BF0F4B104953F824100F48BDE810400FF0BFBE00BF7A
:208F0000D3AD010871AA01083CAA010835AA010883AA0108A8AC010844AA010895AA0108FB
:208F200051AA010855AA0108A7AA0108C4AC01085AAA0108B9AA0108012870B50E4605DC56
:208F40000F49104809F064FC012070BD0628A8BF0620044600251022002156F8250010F0CA
:208F600041FA05F1160381B298B2FFF711FE430702D40135AC42EED1FFF788FFE4E700BF1B
:208F800088A901089EA90108F0B5002885B00C4606DC3349334809F03BFC012005B0F0BD67
:208FA00020681022002110F01DFAB0F5867F53D220681022002110F015FA84B20025E723A1
:208FC0002A4628468DF80C306FF0FF01264B8DF80B508DF80D4008F095FE0223CDE90053B7
:208FE000284603AB01226FF0FF0108F001FF0A2501260DF10B079DF90B30002B0FDB32203D
:20900000FFF7C2FD0023CDE9007601226FF0FF011846013D08F0ECFE15F0FF05EBD1022362
:2090200001930DF10E03009300231A4618466FF0FF0108F0DDFE002008F0BCFE1420FFF7EB
:20904000A3FD9DF80B00FFF721FFBDF80E20074821460FF013FEA0E740F20B14AEE700BFE5
:2090600088A901089EA9010840420F00CBAA0108012870B50D4605DC1A491B4809F0C8FB53
:20908000012070BD28681022002110F0ABF9B0F5867F14D228681022002110F0A3F984B2B6
:2090A000A4F1EC03032B064603D9A4F1F4031B2B08D80E490C48224609F0AAFBE0E740F27A
:2090C0000B14F6E710226868002110F08BF981B22046FFF75DFDFFF7D9FEB1B204480FF089
:2090E000CDFDCDE788A901089EA90108F2AA01081AAB010808B5FFF7B1FEFFF7C7FE0120B7
:2091000008BD000038B50C4D284602F079FA002008F0ACFD6FF0FF01002008F0C9FDFFF77D
:209120009DFE064902460446054809F071FB284602F06AFA204638BD100B002037AB0108BC
:209140009EA901082DE9F84307461646A1F102080546002440F20B1966B92046FFF796FE55
:20916000144815493A4609F053FB14F0030018BF01200CE04D4528BF4D46A5F1EC03032BC4
:2091800007D80C480D492A4609F042FB0120BDE8F883A5F1F4031B2BF3D938F8021F284601
:2091A000FFF7F6FC43070446D7D40135013EADB2B6B2D1E79EA9010872AB010856AB010814
:2091C00038B50C46054600F023FB012C09D0022C0BD06CB9284600F041FABDE8384000F01D
:2091E000FFBA284600F04CFAF7E700F075FAF4E738BD13B50446CDE9002100F009FBDDE962
:209200000021204600F0EAF902B0BDE8104000F0E7BA13B50446CDE9002100F0F9FADDE92A
:209220000021204600F0BCF902B0BDE8104000F0D7BA000037B50C4D0446284602F0BEF835
:2092400000F060FA684600F0C3FA009BC4E90333BDF80630A382BDF80430E382284602F02D
:2092600029F903B030BD00BF180B0020C0E900128360704738B504460068A56823696168D4
:2092800042199A4288BF1D1A2A46FFF7C2FF2368A0682B4423606368401B2B446360A06015
:2092A00038BD38B5858A04460068E36861686A1E0240AD1AA268954228BF154642199A420C
:2092C00088BF1D1A2A46FFF794FF2368A0682B4423606368401B2B446360A06038BD002322
:2092E000C0E901210360704741B1D0E901231344CA68934204D8016000207047222070474F
:2093000020207047F8B504460B481D460F46164602F054F8A36820683B44C0E900368560E4
:209320002068FFF7A7FF05460028F9D1024802F0C1F82846F8BD00BF180B0020F8B50446BB
:209340000B481D460F46164602F038F8A36820683B44C0E9003685602068FFF7A2FF054644
:209360000028F9D1024802F0A5F82846F8BD00BF180B00204B4218400844704710B5044606
:209380000068E368984212D20021FFF719FF2068A268E18A0244FFF7EDFF82428BBF121ACE
:2093A0000023A260A36088BF2060A06810BD0020FCE7000070B504460B4815460E4601F084
:2093C000FDFFA268236832441A600022C3E901252068FFF7D3FF05460028F9D1024802F04F
:2093E00069F8284670BD00BF180B002008B582680B460168D018C98AFFF7BCFF801A08BDC3
:2094000030B589B0002401924FF00122CDE903200D4620460221CDE90544079409F0A6FB2C
:20942000019B2A4603A9204609F05AFC204609F0CDFB09B030BD4FF47A73002158430EF008
:209440009FBA000030B50F4D0FCD87B001AC0FC42B6823600024022120468DF8034009F05B
:2094600085FB01230DF1030201A9204609F038FC204609F0ABFB0220FFF7DDFF9DF8030077
:2094800007B030BD70B0010830B50A4D0FCD87B001AC0FC42B6823600221002009F066FB7D
:2094A00001A9002009F0B2FB002009F08FFB07B030BD00BF84B0010810B586B04FF4145354
:2094C0000024CDE90130039120460221CDE9044409F04CFB01A9204609F098FB204609F02B
:2094E00075FB06B010BD10B54FF4807386B00024CDE9013002212046CDE90344059409F025
:2095000035FB01A9204609F081FB204609F05EFB06B010BD012838B505460C4615DD0D4960
:2095200060680FF053FD20B90B480DF001FB002038BD616808480DF00DFB03460028F6D085
:2095400004F10801A81E9847F1E704480FF082FCEDE700BF1CAA0108B8B0010830AD01080E
:2095600007B5002301220DF1070105208DF80730FFF746FF9DF8070003B05DF804FB10B55F
:209580006524FFF7EDFF00F0C000802803D1013C14F0FF0400D110BD0120FFF74CFFF0E719
:2095A00030B589B000240C4B01920D460322059002212046CDE90332CDE9064409F0D6FA35
:2095C000019B2A4603A9204609F08AFB204609F0FDFA09B030BD00BF00250001F0B5114B0D
:2095E00087B0002402271646CDE901370D460390CDE90444FFF748FF3946204609F0B6FAEE
:20960000B6F5807F33462A4628BF4FF4807301A9204609F021FB204609F0D8FAFFF7AFFFA0
:2096200007B0F0BD002500012DE9F8435FFA80F906460C4615463227C9F58079A945C84678
:2096400028BFA846214642463046FFF7C7FF013FA5EB08054444F1D1BDE8F88310B50446BE
:20966000FFF712FF24F47F6121F00F012020FFF723FF1920FFF7DFFEBDE81040FFF77FBF3D
:20968000B0F5004F07B51ED3B0F5803F1ED3B0F5F81F1ED3B0F5FC1F34BF4FF400434FF4AB
:2096A00000535B4203EA00010191FFF7EDFE0199D820FFF701FF1920FFF7BDFE03B05DF8DF
:2096C00004EBFFF75CBF4FF40053EAE74FF40043E7E74FF48033E4E708B5FFF7D5FEC720A1
:2096E000FFF701FF1920FFF7A6FEBDE80840FFF746BF08B5FFF7C8FEBDE808409820FFF7A5
:20970000F2BE000030B52C482C4D87B001F078FF002009F019FA0FCD01AC0FC42B6823608A
:209720000024022120468DF8034009F01FFA01230DF1030201A9204609F0D2FA204609F047
:2097400045FA0220FFF777FE9DF80330013BDBB2FD2B2DD9FFF776FE6620FFF7C4FE0024B2
:209760009920FFF7C0FE4FF00122012302212046CDE90123CDE90344059409F0F7F9104ABA
:20978000022301A9204609F067FA204609F01EFAFFF7F5FEFFF7ADFFB920FFF7A4FE0220A5
:2097A000FFF749FE044807B0BDE8304001F02CBFFF20FFF798FECFE71C0B002098B001087F
:2097C00030B10108014603229F20FFF719BE0000024B4FF40012C0E9002370470010000171
:2097E00010B5094C2378012B05D1B920FFF77BFE0220FFF720FE23780448013B2370BDE8D9
:20980000104001F001BF00BF250B00201C0B002038B5074C0748084D01F0F2FE237813B9C5
:20982000FFF710FE2870237828780133237038BD250B00201C0B0020240B002008B5FFF7FC
:20984000E7FFFFF7CDFF4FF480734FF480524FF4001102480FF012FA012008BD56AD01087A
:2098600007B5FFF7D5FF01A8FFF7ACFFFFF7B8FF9DF806309DF805209DF8041003480FF0F3
:20988000FDF9012003B05DF804FB00BF86AD010807B5FFF7BDFFFFF763FE0190FFF7A0FFC4
:2098A000019903480FF0EAF9012003B05DF804FBBCAD010808B5FFF7ABFFFFF70DFFFFF7F2
:2098C0008FFF012008BD0000002810B50C4605DC0749084808F09CFF012010BDFFF798FF46
:2098E00020680EF01FFEFFF7CBFEFFF779FFF3E788A90108DBAD0108002810B50C4605DCD3
:209900000749084808F084FF012010BDFFF780FF20680EF007FEFFF7A1FEFFF761FFF3E779
:2099200088A90108DBAD010801282DE9F04107460E4606DC2049214808F06AFF0120BDE870
:20994000F08102281ED148680EF0ECFDB0F5807F1AD870680EF0E6FD0446204603F0CCFD2B
:2099600005460028EAD0022F24D000F1FF380027BC4210D0013756F827000EF0D3FD08F8ED
:20998000010FF5E7441EE8E74FF48074E5E7EB5401339C42FBD1FFF73BFF30680EF0C2FD05
:2099A00022462946FFF740FEFFF71AFF284603F0BDFDC3E70023ECE788A90108DBAD010807
:2099C0000128F8B50E4605DC1C491D4808F020FF0120F8BD48680EF0A5FDB0F5807F24D8D5
:2099E00070680EF09FFD0446204603F085FD05460028EDD0224600210FF01AF8FFF708FF09
:209A00003068104F0EF08EFD22462946FFF7C8FDFFF7E6FE2E462C44A64209D10A480FF063
:209A20002DF9284603F082FDD2E74FF48074DBE716F8011B38460FF021F9EDE788A901089F
:209A4000DBAD01082FAB01085FBA01082DE9F04385B003A8FFF7B6FE9DF80C209DF80D300A
:209A60009DF80E10BF2A3DD1262B3BD1412939D17A497B4808F0CCFE01254FF4807003F0D7
:209A80003BFD00F1FF38044600F1FF074346AA2203F8012FBB42FBD1FFF71EFE002630462E
:209AA0004FF48072214606F58076FFF797FDB6F5003FF4D100264FF4807221463046FFF7B2
:209AC0006FFD434613F8012FAA2A12D1BB42F9D1012306F58076B6F5003F0CD0002BEAD117
:209AE00060490CE000915E485F4908F091FE0025C3E70023EDE7002BF2D05C49013558483D
:209B000008F086FE0020FFF7A9FD00264FF4807221463046FFF744FD434613F8012FFF2AB1
:209B20000DD1BB42F9D14FF0010906F58076B6F5805F19D0B9F1000FE8D14D4920E04FF08C
:209B40000009F2E74FF4807221463046FFF728FD434613F8012FAA2A0AD1BB42F9D106F5C1
:209B60008076B6F5005F06D0B9F1000FEAD1E4E74FF00009F3E7B9F1000FDED03D4901358B
:209B8000374808F045FE0020FFF77AFD00264FF4807221463046FFF703FD434613F8012F8C
:209BA000FF2A0DD19F42F9D14FF0010906F58076B6F5005F19D0B9F1000FE8D12E4920E0DD
:209BC0004FF00009F2E74FF4807221463046FFF7E7FC434613F8012FAA2A0AD19F42F9D15B
:209BE00006F58076B6F5405F06D0B9F1000FEAD1E4E74FF00009F3E7B9F1000FDED01F4924
:209C00000135174808F004FEFFF766FD00264FF4807221463046FFF7C3FC434613F8012FAB
:209C2000FF2A0BD1BB42F9D1012306F58076B6F5003F05D0002BEAD1114905E00023F4E761
:209C4000002BF9D00F490135054808F0E1FD204603F06CFC284605B0BDE8F083E1AD0108CC
:209C6000DBAD010849AE0108F1AD010833AE010899AE010862AE010808AF0108D3AE01080F
:209C80006AAF010840AF010807B5FFF7C1FDFFF7DDFE0190FFF7A4FD019A0449044808F015
:209CA000B7FD012003B05DF804FB00BF97AF0108DBAD010810B50C680F4920460FF086F9B4
:209CC00018B900F0CBF8012010BD0C4920460FF07DF908B90120F4E7094920460FF076F9FF
:209CE00008B90420EDE7074920460FF06FF90028E9D10220E5E700BF32B101083DB101081C
:209D000049B1010855B10108012808B507DD48680EF008FC00F0D6F8C043C00F08BD024816
:209D20000FF098F80120F9E763B1010808B5084C084D204607F09EFA002128460DF020FE71
:209D4000204607F0A0FA044800210DF019FEF0E70408004880380100004C1D001FB50DF06D
:209D6000D3FC16491648174D174C08F051FD174B029300230193164B0093022208234FF416
:209D80000071144801F072FD1349024613480DF059FE4FF4E1300AF04DF9FFF7B3F91048B5
:209DA00007F071FA0F4807F065FA0F4800F0AAF88022294620460DF0D9F8F9E788B1010844
:209DC000A8B10108440D00208CB20108ADB101082D9D0008260B002040420F00280D0020F9
:209DE0000408004808080048B8B101084FF47A73002158430DF0C4BD07B50BF0FBF908B375
:209E0000684601F0C4FA9DF80230032B0FD11049104808F0FDFC019911B90AF063FF014667
:209E200000200CF067FB0C490A4808F0F1FC9DF8020003B05DF804FB0AF054FF01460120C5
:209E40000CF058FB684601F09FFA0028F4DBEEE7D4B20108E0B20108E9B2010807B5002302
:209E6000CDE90033ADF80200A8B1012815D0042815D00C4A0C4B022818BF1A460B490C4824
:209E800008F0C6FC0B4B6846B3F9001001F00AFA03B05DF804FB084AF0E7084AEEE7084AAA
:209EA000ECE700BFFBB201081BB3010823B30108E0B20108EC25002013B3010805B3010848
:209EC0000FB3010807B5B0F5967F4FF44033024600930949034628BF4FF4967307480193FF
:209EE00008F096FC064B6846B3F9001001F0C4F903B05DF804FB00BF32B30108E0B2010820
:209F0000EC2500201FB5044609490A4808F080FC00230193084B00930294082306224FF411
:209F20004061064801F0A2FC054B188004B010BD4DB30108E0B2010839A20008EE25002080
:209F4000EC250020002070470020704708292DE9F04707460D46904621D03B4A3B4B012908
:209F600018BF1A463A493B48DFF81091DFF8E4A008F04EFC002628460BF0AEFE04460028E2
:209F800043D0013632464946504608F041FCBE4207D241F28830FFF729FF0126EBE72E4A52
:209FA000E0E72E492B4808F033FC2D4A00E02D4A2D49284808F02CFC4CB92C49254808F016
:209FC00027FCFFF7BFFF28B90BF0E4FE04462046BDE8F08726491F4808F01AFCFFF7B4FF93
:209FE00004460028F3D123491A4808F011FCFFF7A9FF1B4B1B4A2049041E18BF1A461548D0
:20A0000008F006FC002CDFD0E1E7012D03D14FF47A60FFF7EBFE194EDFF8389000254046F4
:20A020000BF06CFE04460028C1D001352A463146484608F0EDFBAF42B7D941F28830FFF7CB
:20A04000D5FE0125EBE700BF6DB3010871B301087AB30108E0B2010869B30108A9B30108C5
:20A0600076B30108C0B30108C3B30108D4B30108F2B3010811B401082DB4010894B301086D
:20A080002DE9F04707464FF480600E46904603F033FA114D01242860C0B1DFF840A0DFF8AF
:20A0A000409040460BF064FE386040B95146484608F0AEFB28680AF041FC044630B1012E75
:20A0C00007D1286803F032FA00232B602046BDE8F0870126E5E700BFC82500204BB4010802
:20A0E000E0B201082DE9F04F454BDFF84091D3F80080DFF83CA1DFF83CB1D3B00125144672
:20A1000008EB05021A6007460E4606950AF0C8FD3C4B3D4A0090CDE901734FF49671434635
:20A1200007A80EF09FFE3949394807AA08F070FB4FF00008082101223046FFF707FF069023
:20A1400028BBFCB10122314606A8FFF799FF314F044688B941F28830FFF748FE0AF034FC3D
:20A1600038680AF061FC2C492C4A002808BF0A462B49274808F04CFB386808B103F0D6F981
:20A1800000233B603746013FFFB2FF2F09D104B93DB3B8F1000F24D10CF044F80121884609
:20A1A000C9E701200BF0E4FD06900028EBD10122494650460AF08CFB054607A80EF018FFA0
:20A1C00005900AF0C7FF059A034607A928460BF0F5FD054670B913490D4808F019FB002CDA
:20A1E000D7D111490A4808F013FB0BF099FD53B0BDE8F08F0648594608F00AFBC3E700BFFA
:20A2000008320020B3B4010867B40108BBB40108E0B20108C8250020C0B3010863B4010894
:20A22000CAB40108E8B4010811B50108DEB40108E5B40108FCB401082DE9F04F7E497F484A
:20A240008FB008F0E5FA7E48042101F0A3F809F0D9FC082800F2B5807A4A7B4900EB800059
:20A260000244764808F0D4FA0A26784D0AF0F6F80BF076FE09F0ECFA2846FEF7DBFF0AF0B2
:20A2800057FA0446294602F090F82846638A228AE1680CF0CBFC628B238B009229466269C0
:20A2A000002000F0B1FB628C238C00922946E269012000F0A9FB0AF03FFA4FF48053029366
:20A2C00003F5FF13CDE90053614A624901230AF0E7FA01230D930AF09FFF051E09DB30463D
:20A2E00000220221FFF7FEFE15F0010001D1FFF7B5FD002308930AF08FFFC700054676D405
:20A30000C0F3007363F31C752E01C5F3076404D500200AF077FF09F065FCE8073FD52106F1
:20A3200002D5089B002B3AD009F07CFA4FF4FA60FFF75CFD09F080FA4FF4FA60FFF756FDBA
:20A340000AF0D0FC4449454C06463C4808F060FA1E200AF0CDFC0AF05FFF054609F008FC56
:20A3600018B1EA074FEA25674AD46FF3000528460AF060FF30460AF0BBFC09F0B1FF002220
:20A3800001211620FFF7AEFE002D02DB0020FFF765FD3349294808F03BFA00230893FFF773
:20A3A0002BFD04460AF038FF002C63D0012C00F01081042C00F00D81022C089B08BF012383
:20A3C00098E7092805D127491C4808F021FA0C264BE70A2805D12449184808F019FA0B269B
:20A3E00043E72249154808F013FA00263DE76FF31C7528460AF01EFF01F0F8FC002381E734
:20A400000AF070FC014600200CF074F8002F10DA4FF4FA60FFF7EAFC04F5A8446034144B9D
:20A420009C4298D9012211461520FFF75BFE002491E71E34F3E700BF38B50108E0B20108B7
:20A44000CC25002031B801083DB50108F03100200808002057832A3199B50108805101002F
:20A46000B2B501084CB5010864B501087FB501087F5101000126AB49AB4808F0C9F9204604
:20A4800009F024FA09F0CEF9012C00F0A480002C00F0A380A54AA64B042C18BF1A46A54930
:20A4A000A14808F0B5F901270023069608210593BB46079701221046FFF748FD079B0D90D3
:20A4C000002B00F00B82002840F00882012202210DA8FFF7D5FD0790002840F0058240F683
:20A4E000B830FFF783FC059B83B91D4692498E4808F08EF947F2305009F054FA074600281B
